{
	"contracts/BountySubmission.sol": {
		"BountySubmission": {
			"abi": [
				{
					"inputs": [
						{
							"internalType": "uint256",
							"name": "_deadline",
							"type": "uint256"
						}
					],
					"stateMutability": "nonpayable",
					"type": "constructor"
				},
				{
					"inputs": [],
					"name": "BOUNTY_AMOUNT",
					"outputs": [
						{
							"internalType": "uint256",
							"name": "",
							"type": "uint256"
						}
					],
					"stateMutability": "view",
					"type": "function"
				},
				{
					"inputs": [],
					"name": "deadline",
					"outputs": [
						{
							"internalType": "uint256",
							"name": "",
							"type": "uint256"
						}
					],
					"stateMutability": "view",
					"type": "function"
				},
				{
					"inputs": [],
					"name": "getAllSubmissions",
					"outputs": [
						{
							"components": [
								{
									"internalType": "string",
									"name": "githubUrl",
									"type": "string"
								},
								{
									"internalType": "string",
									"name": "telegramId",
									"type": "string"
								},
								{
									"internalType": "address",
									"name": "submitter",
									"type": "address"
								}
							],
							"internalType": "struct BountySubmission.Submission[]",
							"name": "",
							"type": "tuple[]"
						}
					],
					"stateMutability": "view",
					"type": "function"
				},
				{
					"inputs": [
						{
							"internalType": "address",
							"name": "",
							"type": "address"
						}
					],
					"name": "hasSubmitted",
					"outputs": [
						{
							"internalType": "bool",
							"name": "",
							"type": "bool"
						}
					],
					"stateMutability": "view",
					"type": "function"
				},
				{
					"inputs": [],
					"name": "owner",
					"outputs": [
						{
							"internalType": "address",
							"name": "",
							"type": "address"
						}
					],
					"stateMutability": "view",
					"type": "function"
				},
				{
					"inputs": [
						{
							"internalType": "uint256",
							"name": "_newDeadline",
							"type": "uint256"
						}
					],
					"name": "setDeadline",
					"outputs": [],
					"stateMutability": "nonpayable",
					"type": "function"
				},
				{
					"inputs": [
						{
							"internalType": "uint256",
							"name": "",
							"type": "uint256"
						}
					],
					"name": "submissions",
					"outputs": [
						{
							"internalType": "string",
							"name": "githubUrl",
							"type": "string"
						},
						{
							"internalType": "string",
							"name": "telegramId",
							"type": "string"
						},
						{
							"internalType": "address",
							"name": "submitter",
							"type": "address"
						}
					],
					"stateMutability": "view",
					"type": "function"
				},
				{
					"inputs": [],
					"name": "submissionsLeft",
					"outputs": [
						{
							"internalType": "uint256",
							"name": "",
							"type": "uint256"
						}
					],
					"stateMutability": "view",
					"type": "function"
				},
				{
					"inputs": [
						{
							"internalType": "string",
							"name": "_githubUrl",
							"type": "string"
						},
						{
							"internalType": "string",
							"name": "_telegramId",
							"type": "string"
						}
					],
					"name": "submitBounty",
					"outputs": [],
					"stateMutability": "nonpayable",
					"type": "function"
				}
			],
			"devdoc": {
				"kind": "dev",
				"methods": {},
				"version": 1
			},
			"evm": {
				"assembly": "    /* \"contracts/BountySubmission.sol\":60:1755  contract BountySubmission {\r... */\n  mstore(0x40, 0x80)\n    /* \"contracts/BountySubmission.sol\":235:237  25 */\n  0x19\n    /* \"contracts/BountySubmission.sol\":202:237  uint256 public submissionsLeft = 25 */\n  0x02\n  sstore\n    /* \"contracts/BountySubmission.sol\":476:575  constructor(uint256 _deadline) {\r... */\n  callvalue\n  dup1\n  iszero\n  tag_1\n  jumpi\n  0x00\n  dup1\n  revert\ntag_1:\n  pop\n  mload(0x40)\n  sub(codesize, bytecodeSize)\n  dup1\n  bytecodeSize\n  dup4\n  codecopy\n  dup2\n  dup2\n  add\n  0x40\n  mstore\n  dup2\n  add\n  swap1\n  tag_2\n  swap2\n  swap1\n  tag_3\n  jump\t// in\ntag_2:\n    /* \"contracts/BountySubmission.sol\":526:536  msg.sender */\n  caller\n    /* \"contracts/BountySubmission.sol\":518:523  owner */\n  0x00\n  dup1\n    /* \"contracts/BountySubmission.sol\":518:536  owner = msg.sender */\n  0x0100\n  exp\n  dup2\n  sload\n  dup2\n  0xffffffffffffffffffffffffffffffffffffffff\n  mul\n  not\n  and\n  swap1\n  dup4\n  0xffffffffffffffffffffffffffffffffffffffff\n  and\n  mul\n  or\n  swap1\n  sstore\n  pop\n    /* \"contracts/BountySubmission.sol\":558:567  _deadline */\n  dup1\n    /* \"contracts/BountySubmission.sol\":547:555  deadline */\n  0x01\n    /* \"contracts/BountySubmission.sol\":547:567  deadline = _deadline */\n  dup2\n  swap1\n  sstore\n  pop\n    /* \"contracts/BountySubmission.sol\":476:575  constructor(uint256 _deadline) {\r... */\n  pop\n    /* \"contracts/BountySubmission.sol\":60:1755  contract BountySubmission {\r... */\n  jump(tag_6)\n    /* \"#utility.yul\":7:150   */\ntag_8:\n  0x00\n    /* \"#utility.yul\":95:101   */\n  dup2\n    /* \"#utility.yul\":89:102   */\n  mload\n    /* \"#utility.yul\":80:102   */\n  swap1\n  pop\n    /* \"#utility.yul\":111:144   */\n  tag_10\n    /* \"#utility.yul\":138:143   */\n  dup2\n    /* \"#utility.yul\":111:144   */\n  tag_11\n  jump\t// in\ntag_10:\n    /* \"#utility.yul\":70:150   */\n  swap3\n  swap2\n  pop\n  pop\n  jump\t// out\n    /* \"#utility.yul\":156:440   */\ntag_3:\n  0x00\n    /* \"#utility.yul\":275:277   */\n  0x20\n    /* \"#utility.yul\":263:272   */\n  dup3\n    /* \"#utility.yul\":254:261   */\n  dup5\n    /* \"#utility.yul\":250:273   */\n  sub\n    /* \"#utility.yul\":246:278   */\n  slt\n    /* \"#utility.yul\":243:245   */\n  iszero\n  tag_13\n  jumpi\n    /* \"#utility.yul\":291:292   */\n  0x00\n    /* \"#utility.yul\":288:289   */\n  dup1\n    /* \"#utility.yul\":281:293   */\n  revert\n    /* \"#utility.yul\":243:245   */\ntag_13:\n    /* \"#utility.yul\":334:335   */\n  0x00\n    /* \"#utility.yul\":359:423   */\n  tag_14\n    /* \"#utility.yul\":415:422   */\n  dup5\n    /* \"#utility.yul\":406:412   */\n  dup3\n    /* \"#utility.yul\":395:404   */\n  dup6\n    /* \"#utility.yul\":391:413   */\n  add\n    /* \"#utility.yul\":359:423   */\n  tag_8\n  jump\t// in\ntag_14:\n    /* \"#utility.yul\":349:423   */\n  swap2\n  pop\n    /* \"#utility.yul\":305:433   */\n  pop\n    /* \"#utility.yul\":233:440   */\n  swap3\n  swap2\n  pop\n  pop\n  jump\t// out\n    /* \"#utility.yul\":446:523   */\ntag_15:\n  0x00\n    /* \"#utility.yul\":512:517   */\n  dup2\n    /* \"#utility.yul\":501:517   */\n  swap1\n  pop\n    /* \"#utility.yul\":491:523   */\n  swap2\n  swap1\n  pop\n  jump\t// out\n    /* \"#utility.yul\":529:651   */\ntag_11:\n    /* \"#utility.yul\":602:626   */\n  tag_18\n    /* \"#utility.yul\":620:625   */\n  dup2\n    /* \"#utility.yul\":602:626   */\n  tag_15\n  jump\t// in\ntag_18:\n    /* \"#utility.yul\":595:600   */\n  dup2\n    /* \"#utility.yul\":592:627   */\n  eq\n    /* \"#utility.yul\":582:584   */\n  tag_19\n  jumpi\n    /* \"#utility.yul\":641:642   */\n  0x00\n    /* \"#utility.yul\":638:639   */\n  dup1\n    /* \"#utility.yul\":631:643   */\n  revert\n    /* \"#utility.yul\":582:584   */\ntag_19:\n    /* \"#utility.yul\":572:651   */\n  pop\n  jump\t// out\n    /* \"contracts/BountySubmission.sol\":60:1755  contract BountySubmission {\r... */\ntag_6:\n  dataSize(sub_0)\n  dup1\n  dataOffset(sub_0)\n  0x00\n  codecopy\n  0x00\n  return\nstop\n\nsub_0: assembly {\n        /* \"contracts/BountySubmission.sol\":60:1755  contract BountySubmission {\r... */\n      mstore(0x40, 0x80)\n      callvalue\n      dup1\n      iszero\n      tag_1\n      jumpi\n      0x00\n      dup1\n      revert\n    tag_1:\n      pop\n      jumpi(tag_2, lt(calldatasize, 0x04))\n      shr(0xe0, calldataload(0x00))\n      dup1\n      0x848a991a\n      gt\n      tag_12\n      jumpi\n      dup1\n      0x848a991a\n      eq\n      tag_7\n      jumpi\n      dup1\n      0x8da5cb5b\n      eq\n      tag_8\n      jumpi\n      dup1\n      0x8de0acc3\n      eq\n      tag_9\n      jumpi\n      dup1\n      0xad73349e\n      eq\n      tag_10\n      jumpi\n      dup1\n      0xe9e48880\n      eq\n      tag_11\n      jumpi\n      jump(tag_2)\n    tag_12:\n      dup1\n      0x195199f6\n      eq\n      tag_3\n      jumpi\n      dup1\n      0x29dcb0cf\n      eq\n      tag_4\n      jumpi\n      dup1\n      0x388044b3\n      eq\n      tag_5\n      jumpi\n      dup1\n      0x62bd983a\n      eq\n      tag_6\n      jumpi\n    tag_2:\n      0x00\n      dup1\n      revert\n        /* \"contracts/BountySubmission.sol\":1648:1752  function setDeadline(uint256 _newDeadline) external onlyOwner {\r... */\n    tag_3:\n      tag_13\n      0x04\n      dup1\n      calldatasize\n      sub\n      dup2\n      add\n      swap1\n      tag_14\n      swap2\n      swap1\n      tag_15\n      jump\t// in\n    tag_14:\n      tag_16\n      jump\t// in\n    tag_13:\n      stop\n        /* \"contracts/BountySubmission.sol\":172:195  uint256 public deadline */\n    tag_4:\n      tag_17\n      tag_18\n      jump\t// in\n    tag_17:\n      mload(0x40)\n      tag_19\n      swap2\n      swap1\n      tag_20\n      jump\t// in\n    tag_19:\n      mload(0x40)\n      dup1\n      swap2\n      sub\n      swap1\n      return\n        /* \"contracts/BountySubmission.sol\":401:445  mapping(address => bool) public hasSubmitted */\n    tag_5:\n      tag_21\n      0x04\n      dup1\n      calldatasize\n      sub\n      dup2\n      add\n      swap1\n      tag_22\n      swap2\n      swap1\n      tag_23\n      jump\t// in\n    tag_22:\n      tag_24\n      jump\t// in\n    tag_21:\n      mload(0x40)\n      tag_25\n      swap2\n      swap1\n      tag_26\n      jump\t// in\n    tag_25:\n      mload(0x40)\n      dup1\n      swap2\n      sub\n      swap1\n      return\n        /* \"contracts/BountySubmission.sol\":1472:1580  function getAllSubmissions() public view returns (Submission[] memory) {\r... */\n    tag_6:\n      tag_27\n      tag_28\n      jump\t// in\n    tag_27:\n      mload(0x40)\n      tag_29\n      swap2\n      swap1\n      tag_30\n      jump\t// in\n    tag_29:\n      mload(0x40)\n      dup1\n      swap2\n      sub\n      swap1\n      return\n        /* \"contracts/BountySubmission.sol\":202:237  uint256 public submissionsLeft = 25 */\n    tag_7:\n      tag_31\n      tag_32\n      jump\t// in\n    tag_31:\n      mload(0x40)\n      tag_33\n      swap2\n      swap1\n      tag_20\n      jump\t// in\n    tag_33:\n      mload(0x40)\n      dup1\n      swap2\n      sub\n      swap1\n      return\n        /* \"contracts/BountySubmission.sol\":93:113  address public owner */\n    tag_8:\n      tag_34\n      tag_35\n      jump\t// in\n    tag_34:\n      mload(0x40)\n      tag_36\n      swap2\n      swap1\n      tag_37\n      jump\t// in\n    tag_36:\n      mload(0x40)\n      dup1\n      swap2\n      sub\n      swap1\n      return\n        /* \"contracts/BountySubmission.sol\":963:1464  function submitBounty(\r... */\n    tag_9:\n      tag_38\n      0x04\n      dup1\n      calldatasize\n      sub\n      dup2\n      add\n      swap1\n      tag_39\n      swap2\n      swap1\n      tag_40\n      jump\t// in\n    tag_39:\n      tag_41\n      jump\t// in\n    tag_38:\n      stop\n        /* \"contracts/BountySubmission.sol\":363:394  Submission[] public submissions */\n    tag_10:\n      tag_42\n      0x04\n      dup1\n      calldatasize\n      sub\n      dup2\n      add\n      swap1\n      tag_43\n      swap2\n      swap1\n      tag_15\n      jump\t// in\n    tag_43:\n      tag_44\n      jump\t// in\n    tag_42:\n      mload(0x40)\n      tag_45\n      swap4\n      swap3\n      swap2\n      swap1\n      tag_46\n      jump\t// in\n    tag_45:\n      mload(0x40)\n      dup1\n      swap2\n      sub\n      swap1\n      return\n        /* \"contracts/BountySubmission.sol\":120:165  uint256 public constant BOUNTY_AMOUNT = 50000 */\n    tag_11:\n      tag_47\n      tag_48\n      jump\t// in\n    tag_47:\n      mload(0x40)\n      tag_49\n      swap2\n      swap1\n      tag_20\n      jump\t// in\n    tag_49:\n      mload(0x40)\n      dup1\n      swap2\n      sub\n      swap1\n      return\n        /* \"contracts/BountySubmission.sol\":1648:1752  function setDeadline(uint256 _newDeadline) external onlyOwner {\r... */\n    tag_16:\n        /* \"contracts/BountySubmission.sol\":637:642  owner */\n      0x00\n      dup1\n      sload\n      swap1\n      0x0100\n      exp\n      swap1\n      div\n      0xffffffffffffffffffffffffffffffffffffffff\n      and\n        /* \"contracts/BountySubmission.sol\":623:642  msg.sender == owner */\n      0xffffffffffffffffffffffffffffffffffffffff\n      and\n        /* \"contracts/BountySubmission.sol\":623:633  msg.sender */\n      caller\n        /* \"contracts/BountySubmission.sol\":623:642  msg.sender == owner */\n      0xffffffffffffffffffffffffffffffffffffffff\n      and\n      eq\n        /* \"contracts/BountySubmission.sol\":615:671  require(msg.sender == owner, \"Only owner can call this\") */\n      tag_51\n      jumpi\n      mload(0x40)\n      0x08c379a000000000000000000000000000000000000000000000000000000000\n      dup2\n      mstore\n      0x04\n      add\n      tag_52\n      swap1\n      tag_53\n      jump\t// in\n    tag_52:\n      mload(0x40)\n      dup1\n      swap2\n      sub\n      swap1\n      revert\n    tag_51:\n        /* \"contracts/BountySubmission.sol\":1732:1744  _newDeadline */\n      dup1\n        /* \"contracts/BountySubmission.sol\":1721:1729  deadline */\n      0x01\n        /* \"contracts/BountySubmission.sol\":1721:1744  deadline = _newDeadline */\n      dup2\n      swap1\n      sstore\n      pop\n        /* \"contracts/BountySubmission.sol\":1648:1752  function setDeadline(uint256 _newDeadline) external onlyOwner {\r... */\n      pop\n      jump\t// out\n        /* \"contracts/BountySubmission.sol\":172:195  uint256 public deadline */\n    tag_18:\n      sload(0x01)\n      dup2\n      jump\t// out\n        /* \"contracts/BountySubmission.sol\":401:445  mapping(address => bool) public hasSubmitted */\n    tag_24:\n      mstore(0x20, 0x04)\n      dup1\n      0x00\n      mstore\n      keccak256(0x00, 0x40)\n      0x00\n      swap2\n      pop\n      sload\n      swap1\n      0x0100\n      exp\n      swap1\n      div\n      0xff\n      and\n      dup2\n      jump\t// out\n        /* \"contracts/BountySubmission.sol\":1472:1580  function getAllSubmissions() public view returns (Submission[] memory) {\r... */\n    tag_28:\n        /* \"contracts/BountySubmission.sol\":1522:1541  Submission[] memory */\n      0x60\n        /* \"contracts/BountySubmission.sol\":1561:1572  submissions */\n      0x03\n        /* \"contracts/BountySubmission.sol\":1554:1572  return submissions */\n      dup1\n      sload\n      dup1\n      0x20\n      mul\n      0x20\n      add\n      mload(0x40)\n      swap1\n      dup2\n      add\n      0x40\n      mstore\n      dup1\n      swap3\n      swap2\n      swap1\n      dup2\n      dup2\n      mstore\n      0x20\n      add\n      0x00\n      swap1\n    tag_56:\n      dup3\n      dup3\n      lt\n      iszero\n      tag_57\n      jumpi\n      dup4\n      dup3\n      swap1\n      0x00\n      mstore\n      keccak256(0x00, 0x20)\n      swap1\n      0x03\n      mul\n      add\n      mload(0x40)\n      dup1\n      0x60\n      add\n      0x40\n      mstore\n      swap1\n      dup2\n      0x00\n      dup3\n      add\n      dup1\n      sload\n      tag_59\n      swap1\n      tag_60\n      jump\t// in\n    tag_59:\n      dup1\n      0x1f\n      add\n      0x20\n      dup1\n      swap2\n      div\n      mul\n      0x20\n      add\n      mload(0x40)\n      swap1\n      dup2\n      add\n      0x40\n      mstore\n      dup1\n      swap3\n      swap2\n      swap1\n      dup2\n      dup2\n      mstore\n      0x20\n      add\n      dup3\n      dup1\n      sload\n      tag_61\n      swap1\n      tag_60\n      jump\t// in\n    tag_61:\n      dup1\n      iszero\n      tag_62\n      jumpi\n      dup1\n      0x1f\n      lt\n      tag_63\n      jumpi\n      0x0100\n      dup1\n      dup4\n      sload\n      div\n      mul\n      dup4\n      mstore\n      swap2\n      0x20\n      add\n      swap2\n      jump(tag_62)\n    tag_63:\n      dup3\n      add\n      swap2\n      swap1\n      0x00\n      mstore\n      keccak256(0x00, 0x20)\n      swap1\n    tag_64:\n      dup2\n      sload\n      dup2\n      mstore\n      swap1\n      0x01\n      add\n      swap1\n      0x20\n      add\n      dup1\n      dup4\n      gt\n      tag_64\n      jumpi\n      dup3\n      swap1\n      sub\n      0x1f\n      and\n      dup3\n      add\n      swap2\n    tag_62:\n      pop\n      pop\n      pop\n      pop\n      pop\n      dup2\n      mstore\n      0x20\n      add\n      0x01\n      dup3\n      add\n      dup1\n      sload\n      tag_65\n      swap1\n      tag_60\n      jump\t// in\n    tag_65:\n      dup1\n      0x1f\n      add\n      0x20\n      dup1\n      swap2\n      div\n      mul\n      0x20\n      add\n      mload(0x40)\n      swap1\n      dup2\n      add\n      0x40\n      mstore\n      dup1\n      swap3\n      swap2\n      swap1\n      dup2\n      dup2\n      mstore\n      0x20\n      add\n      dup3\n      dup1\n      sload\n      tag_66\n      swap1\n      tag_60\n      jump\t// in\n    tag_66:\n      dup1\n      iszero\n      tag_67\n      jumpi\n      dup1\n      0x1f\n      lt\n      tag_68\n      jumpi\n      0x0100\n      dup1\n      dup4\n      sload\n      div\n      mul\n      dup4\n      mstore\n      swap2\n      0x20\n      add\n      swap2\n      jump(tag_67)\n    tag_68:\n      dup3\n      add\n      swap2\n      swap1\n      0x00\n      mstore\n      keccak256(0x00, 0x20)\n      swap1\n    tag_69:\n      dup2\n      sload\n      dup2\n      mstore\n      swap1\n      0x01\n      add\n      swap1\n      0x20\n      add\n      dup1\n      dup4\n      gt\n      tag_69\n      jumpi\n      dup3\n      swap1\n      sub\n      0x1f\n      and\n      dup3\n      add\n      swap2\n    tag_67:\n      pop\n      pop\n      pop\n      pop\n      pop\n      dup2\n      mstore\n      0x20\n      add\n      0x02\n      dup3\n      add\n      0x00\n      swap1\n      sload\n      swap1\n      0x0100\n      exp\n      swap1\n      div\n      0xffffffffffffffffffffffffffffffffffffffff\n      and\n      0xffffffffffffffffffffffffffffffffffffffff\n      and\n      0xffffffffffffffffffffffffffffffffffffffff\n      and\n      dup2\n      mstore\n      pop\n      pop\n      dup2\n      mstore\n      0x20\n      add\n      swap1\n      0x01\n      add\n      swap1\n      jump(tag_56)\n    tag_57:\n      pop\n      pop\n      pop\n      pop\n      swap1\n      pop\n        /* \"contracts/BountySubmission.sol\":1472:1580  function getAllSubmissions() public view returns (Submission[] memory) {\r... */\n      swap1\n      jump\t// out\n        /* \"contracts/BountySubmission.sol\":202:237  uint256 public submissionsLeft = 25 */\n    tag_32:\n      sload(0x02)\n      dup2\n      jump\t// out\n        /* \"contracts/BountySubmission.sol\":93:113  address public owner */\n    tag_35:\n      0x00\n      dup1\n      sload\n      swap1\n      0x0100\n      exp\n      swap1\n      div\n      0xffffffffffffffffffffffffffffffffffffffff\n      and\n      dup2\n      jump\t// out\n        /* \"contracts/BountySubmission.sol\":963:1464  function submitBounty(\r... */\n    tag_41:\n        /* \"contracts/BountySubmission.sol\":1089:1099  _githubUrl */\n      dup2\n        /* \"contracts/BountySubmission.sol\":1101:1112  _telegramId */\n      dup2\n        /* \"contracts/BountySubmission.sol\":823:824  0 */\n      0x00\n        /* \"contracts/BountySubmission.sol\":802:812  _githubUrl */\n      dup3\n        /* \"contracts/BountySubmission.sol\":796:820  bytes(_githubUrl).length */\n      mload\n        /* \"contracts/BountySubmission.sol\":796:824  bytes(_githubUrl).length > 0 */\n      gt\n        /* \"contracts/BountySubmission.sol\":788:855  require(bytes(_githubUrl).length > 0, \"GitHub URL cannot be empty\") */\n      tag_71\n      jumpi\n      mload(0x40)\n      0x08c379a000000000000000000000000000000000000000000000000000000000\n      dup2\n      mstore\n      0x04\n      add\n      tag_72\n      swap1\n      tag_73\n      jump\t// in\n    tag_72:\n      mload(0x40)\n      dup1\n      swap2\n      sub\n      swap1\n      revert\n    tag_71:\n        /* \"contracts/BountySubmission.sol\":902:903  0 */\n      0x00\n        /* \"contracts/BountySubmission.sol\":880:891  _telegramId */\n      dup2\n        /* \"contracts/BountySubmission.sol\":874:899  bytes(_telegramId).length */\n      mload\n        /* \"contracts/BountySubmission.sol\":874:903  bytes(_telegramId).length > 0 */\n      gt\n        /* \"contracts/BountySubmission.sol\":866:935  require(bytes(_telegramId).length > 0, \"Telegram ID cannot be empty\") */\n      tag_74\n      jumpi\n      mload(0x40)\n      0x08c379a000000000000000000000000000000000000000000000000000000000\n      dup2\n      mstore\n      0x04\n      add\n      tag_75\n      swap1\n      tag_76\n      jump\t// in\n    tag_75:\n      mload(0x40)\n      dup1\n      swap2\n      sub\n      swap1\n      revert\n    tag_74:\n        /* \"contracts/BountySubmission.sol\":1152:1160  deadline */\n      sload(0x01)\n        /* \"contracts/BountySubmission.sol\":1133:1148  block.timestamp */\n      timestamp\n        /* \"contracts/BountySubmission.sol\":1133:1160  block.timestamp <= deadline */\n      gt\n      iszero\n        /* \"contracts/BountySubmission.sol\":1125:1180  require(block.timestamp <= deadline, \"Deadline passed\") */\n      tag_78\n      jumpi\n      mload(0x40)\n      0x08c379a000000000000000000000000000000000000000000000000000000000\n      dup2\n      mstore\n      0x04\n      add\n      tag_79\n      swap1\n      tag_80\n      jump\t// in\n    tag_79:\n      mload(0x40)\n      dup1\n      swap2\n      sub\n      swap1\n      revert\n    tag_78:\n        /* \"contracts/BountySubmission.sol\":1217:1218  0 */\n      0x00\n        /* \"contracts/BountySubmission.sol\":1199:1214  submissionsLeft */\n      sload(0x02)\n        /* \"contracts/BountySubmission.sol\":1199:1218  submissionsLeft > 0 */\n      gt\n        /* \"contracts/BountySubmission.sol\":1191:1242  require(submissionsLeft > 0, \"No submissions left\") */\n      tag_81\n      jumpi\n      mload(0x40)\n      0x08c379a000000000000000000000000000000000000000000000000000000000\n      dup2\n      mstore\n      0x04\n      add\n      tag_82\n      swap1\n      tag_83\n      jump\t// in\n    tag_82:\n      mload(0x40)\n      dup1\n      swap2\n      sub\n      swap1\n      revert\n    tag_81:\n        /* \"contracts/BountySubmission.sol\":1262:1274  hasSubmitted */\n      0x04\n        /* \"contracts/BountySubmission.sol\":1262:1286  hasSubmitted[msg.sender] */\n      0x00\n        /* \"contracts/BountySubmission.sol\":1275:1285  msg.sender */\n      caller\n        /* \"contracts/BountySubmission.sol\":1262:1286  hasSubmitted[msg.sender] */\n      0xffffffffffffffffffffffffffffffffffffffff\n      and\n      0xffffffffffffffffffffffffffffffffffffffff\n      and\n      dup2\n      mstore\n      0x20\n      add\n      swap1\n      dup2\n      mstore\n      0x20\n      add\n      0x00\n      keccak256\n      0x00\n      swap1\n      sload\n      swap1\n      0x0100\n      exp\n      swap1\n      div\n      0xff\n      and\n        /* \"contracts/BountySubmission.sol\":1261:1286  !hasSubmitted[msg.sender] */\n      iszero\n        /* \"contracts/BountySubmission.sol\":1253:1308  require(!hasSubmitted[msg.sender], \"Already submitted\") */\n      tag_84\n      jumpi\n      mload(0x40)\n      0x08c379a000000000000000000000000000000000000000000000000000000000\n      dup2\n      mstore\n      0x04\n      add\n      tag_85\n      swap1\n      tag_86\n      jump\t// in\n    tag_85:\n      mload(0x40)\n      dup1\n      swap2\n      sub\n      swap1\n      revert\n    tag_84:\n        /* \"contracts/BountySubmission.sol\":1321:1332  submissions */\n      0x03\n        /* \"contracts/BountySubmission.sol\":1338:1385  Submission(_githubUrl, _telegramId, msg.sender) */\n      mload(0x40)\n      dup1\n      0x60\n      add\n      0x40\n      mstore\n      dup1\n        /* \"contracts/BountySubmission.sol\":1349:1359  _githubUrl */\n      dup7\n        /* \"contracts/BountySubmission.sol\":1338:1385  Submission(_githubUrl, _telegramId, msg.sender) */\n      dup2\n      mstore\n      0x20\n      add\n        /* \"contracts/BountySubmission.sol\":1361:1372  _telegramId */\n      dup6\n        /* \"contracts/BountySubmission.sol\":1338:1385  Submission(_githubUrl, _telegramId, msg.sender) */\n      dup2\n      mstore\n      0x20\n      add\n        /* \"contracts/BountySubmission.sol\":1374:1384  msg.sender */\n      caller\n        /* \"contracts/BountySubmission.sol\":1338:1385  Submission(_githubUrl, _telegramId, msg.sender) */\n      0xffffffffffffffffffffffffffffffffffffffff\n      and\n      dup2\n      mstore\n      pop\n        /* \"contracts/BountySubmission.sol\":1321:1386  submissions.push(Submission(_githubUrl, _telegramId, msg.sender)) */\n      swap1\n      dup1\n      0x01\n      dup2\n      sload\n      add\n      dup1\n      dup3\n      sstore\n      dup1\n      swap2\n      pop\n      pop\n      0x01\n      swap1\n      sub\n      swap1\n      0x00\n      mstore\n      keccak256(0x00, 0x20)\n      swap1\n      0x03\n      mul\n      add\n      0x00\n      swap1\n      swap2\n      swap1\n      swap2\n      swap1\n      swap2\n      pop\n      0x00\n      dup3\n      add\n      mload\n      dup2\n      0x00\n      add\n      swap1\n      dup1\n      mload\n      swap1\n      0x20\n      add\n      swap1\n      tag_88\n      swap3\n      swap2\n      swap1\n      tag_89\n      jump\t// in\n    tag_88:\n      pop\n      0x20\n      dup3\n      add\n      mload\n      dup2\n      0x01\n      add\n      swap1\n      dup1\n      mload\n      swap1\n      0x20\n      add\n      swap1\n      tag_90\n      swap3\n      swap2\n      swap1\n      tag_89\n      jump\t// in\n    tag_90:\n      pop\n      0x40\n      dup3\n      add\n      mload\n      dup2\n      0x02\n      add\n      exp(0x0100, 0x00)\n      dup2\n      sload\n      dup2\n      0xffffffffffffffffffffffffffffffffffffffff\n      mul\n      not\n      and\n      swap1\n      dup4\n      0xffffffffffffffffffffffffffffffffffffffff\n      and\n      mul\n      or\n      swap1\n      sstore\n      pop\n      pop\n      pop\n        /* \"contracts/BountySubmission.sol\":1424:1428  true */\n      0x01\n        /* \"contracts/BountySubmission.sol\":1397:1409  hasSubmitted */\n      0x04\n        /* \"contracts/BountySubmission.sol\":1397:1421  hasSubmitted[msg.sender] */\n      0x00\n        /* \"contracts/BountySubmission.sol\":1410:1420  msg.sender */\n      caller\n        /* \"contracts/BountySubmission.sol\":1397:1421  hasSubmitted[msg.sender] */\n      0xffffffffffffffffffffffffffffffffffffffff\n      and\n      0xffffffffffffffffffffffffffffffffffffffff\n      and\n      dup2\n      mstore\n      0x20\n      add\n      swap1\n      dup2\n      mstore\n      0x20\n      add\n      0x00\n      keccak256\n      0x00\n        /* \"contracts/BountySubmission.sol\":1397:1428  hasSubmitted[msg.sender] = true */\n      0x0100\n      exp\n      dup2\n      sload\n      dup2\n      0xff\n      mul\n      not\n      and\n      swap1\n      dup4\n      iszero\n      iszero\n      mul\n      or\n      swap1\n      sstore\n      pop\n        /* \"contracts/BountySubmission.sol\":1439:1454  submissionsLeft */\n      0x02\n      0x00\n        /* \"contracts/BountySubmission.sol\":1439:1456  submissionsLeft-- */\n      dup2\n      sload\n      dup1\n      swap3\n      swap2\n      swap1\n      tag_91\n      swap1\n      tag_92\n      jump\t// in\n    tag_91:\n      swap2\n      swap1\n      pop\n      sstore\n      pop\n        /* \"contracts/BountySubmission.sol\":963:1464  function submitBounty(\r... */\n      pop\n      pop\n      pop\n      pop\n      jump\t// out\n        /* \"contracts/BountySubmission.sol\":363:394  Submission[] public submissions */\n    tag_44:\n      0x03\n      dup2\n      dup2\n      sload\n      dup2\n      lt\n      tag_93\n      jumpi\n      0x00\n      dup1\n      revert\n    tag_93:\n      swap1\n      0x00\n      mstore\n      keccak256(0x00, 0x20)\n      swap1\n      0x03\n      mul\n      add\n      0x00\n      swap2\n      pop\n      swap1\n      pop\n      dup1\n      0x00\n      add\n      dup1\n      sload\n      tag_95\n      swap1\n      tag_60\n      jump\t// in\n    tag_95:\n      dup1\n      0x1f\n      add\n      0x20\n      dup1\n      swap2\n      div\n      mul\n      0x20\n      add\n      mload(0x40)\n      swap1\n      dup2\n      add\n      0x40\n      mstore\n      dup1\n      swap3\n      swap2\n      swap1\n      dup2\n      dup2\n      mstore\n      0x20\n      add\n      dup3\n      dup1\n      sload\n      tag_96\n      swap1\n      tag_60\n      jump\t// in\n    tag_96:\n      dup1\n      iszero\n      tag_97\n      jumpi\n      dup1\n      0x1f\n      lt\n      tag_98\n      jumpi\n      0x0100\n      dup1\n      dup4\n      sload\n      div\n      mul\n      dup4\n      mstore\n      swap2\n      0x20\n      add\n      swap2\n      jump(tag_97)\n    tag_98:\n      dup3\n      add\n      swap2\n      swap1\n      0x00\n      mstore\n      keccak256(0x00, 0x20)\n      swap1\n    tag_99:\n      dup2\n      sload\n      dup2\n      mstore\n      swap1\n      0x01\n      add\n      swap1\n      0x20\n      add\n      dup1\n      dup4\n      gt\n      tag_99\n      jumpi\n      dup3\n      swap1\n      sub\n      0x1f\n      and\n      dup3\n      add\n      swap2\n    tag_97:\n      pop\n      pop\n      pop\n      pop\n      pop\n      swap1\n      dup1\n      0x01\n      add\n      dup1\n      sload\n      tag_100\n      swap1\n      tag_60\n      jump\t// in\n    tag_100:\n      dup1\n      0x1f\n      add\n      0x20\n      dup1\n      swap2\n      div\n      mul\n      0x20\n      add\n      mload(0x40)\n      swap1\n      dup2\n      add\n      0x40\n      mstore\n      dup1\n      swap3\n      swap2\n      swap1\n      dup2\n      dup2\n      mstore\n      0x20\n      add\n      dup3\n      dup1\n      sload\n      tag_101\n      swap1\n      tag_60\n      jump\t// in\n    tag_101:\n      dup1\n      iszero\n      tag_102\n      jumpi\n      dup1\n      0x1f\n      lt\n      tag_103\n      jumpi\n      0x0100\n      dup1\n      dup4\n      sload\n      div\n      mul\n      dup4\n      mstore\n      swap2\n      0x20\n      add\n      swap2\n      jump(tag_102)\n    tag_103:\n      dup3\n      add\n      swap2\n      swap1\n      0x00\n      mstore\n      keccak256(0x00, 0x20)\n      swap1\n    tag_104:\n      dup2\n      sload\n      dup2\n      mstore\n      swap1\n      0x01\n      add\n      swap1\n      0x20\n      add\n      dup1\n      dup4\n      gt\n      tag_104\n      jumpi\n      dup3\n      swap1\n      sub\n      0x1f\n      and\n      dup3\n      add\n      swap2\n    tag_102:\n      pop\n      pop\n      pop\n      pop\n      pop\n      swap1\n      dup1\n      0x02\n      add\n      0x00\n      swap1\n      sload\n      swap1\n      0x0100\n      exp\n      swap1\n      div\n      0xffffffffffffffffffffffffffffffffffffffff\n      and\n      swap1\n      pop\n      dup4\n      jump\t// out\n        /* \"contracts/BountySubmission.sol\":120:165  uint256 public constant BOUNTY_AMOUNT = 50000 */\n    tag_48:\n        /* \"contracts/BountySubmission.sol\":160:165  50000 */\n      0xc350\n        /* \"contracts/BountySubmission.sol\":120:165  uint256 public constant BOUNTY_AMOUNT = 50000 */\n      dup2\n      jump\t// out\n    tag_89:\n      dup3\n      dup1\n      sload\n      tag_105\n      swap1\n      tag_60\n      jump\t// in\n    tag_105:\n      swap1\n      0x00\n      mstore\n      keccak256(0x00, 0x20)\n      swap1\n      0x1f\n      add\n      0x20\n      swap1\n      div\n      dup2\n      add\n      swap3\n      dup3\n      tag_107\n      jumpi\n      0x00\n      dup6\n      sstore\n      jump(tag_106)\n    tag_107:\n      dup3\n      0x1f\n      lt\n      tag_108\n      jumpi\n      dup1\n      mload\n      not(0xff)\n      and\n      dup4\n      dup1\n      add\n      or\n      dup6\n      sstore\n      jump(tag_106)\n    tag_108:\n      dup3\n      dup1\n      add\n      0x01\n      add\n      dup6\n      sstore\n      dup3\n      iszero\n      tag_106\n      jumpi\n      swap2\n      dup3\n      add\n    tag_109:\n      dup3\n      dup2\n      gt\n      iszero\n      tag_110\n      jumpi\n      dup3\n      mload\n      dup3\n      sstore\n      swap2\n      0x20\n      add\n      swap2\n      swap1\n      0x01\n      add\n      swap1\n      jump(tag_109)\n    tag_110:\n    tag_106:\n      pop\n      swap1\n      pop\n      tag_111\n      swap2\n      swap1\n      tag_112\n      jump\t// in\n    tag_111:\n      pop\n      swap1\n      jump\t// out\n    tag_112:\n    tag_113:\n      dup1\n      dup3\n      gt\n      iszero\n      tag_114\n      jumpi\n      0x00\n      dup2\n      0x00\n      swap1\n      sstore\n      pop\n      0x01\n      add\n      jump(tag_113)\n    tag_114:\n      pop\n      swap1\n      jump\t// out\n        /* \"#utility.yul\":7:351   */\n    tag_116:\n      0x00\n        /* \"#utility.yul\":110:175   */\n      tag_118\n        /* \"#utility.yul\":125:174   */\n      tag_119\n        /* \"#utility.yul\":167:173   */\n      dup5\n        /* \"#utility.yul\":125:174   */\n      tag_120\n      jump\t// in\n    tag_119:\n        /* \"#utility.yul\":110:175   */\n      tag_121\n      jump\t// in\n    tag_118:\n        /* \"#utility.yul\":101:175   */\n      swap1\n      pop\n        /* \"#utility.yul\":198:204   */\n      dup3\n        /* \"#utility.yul\":191:196   */\n      dup2\n        /* \"#utility.yul\":184:205   */\n      mstore\n        /* \"#utility.yul\":236:240   */\n      0x20\n        /* \"#utility.yul\":229:234   */\n      dup2\n        /* \"#utility.yul\":225:241   */\n      add\n        /* \"#utility.yul\":274:277   */\n      dup5\n        /* \"#utility.yul\":265:271   */\n      dup5\n        /* \"#utility.yul\":260:263   */\n      dup5\n        /* \"#utility.yul\":256:272   */\n      add\n        /* \"#utility.yul\":253:278   */\n      gt\n        /* \"#utility.yul\":250:252   */\n      iszero\n      tag_122\n      jumpi\n        /* \"#utility.yul\":291:292   */\n      0x00\n        /* \"#utility.yul\":288:289   */\n      dup1\n        /* \"#utility.yul\":281:293   */\n      revert\n        /* \"#utility.yul\":250:252   */\n    tag_122:\n        /* \"#utility.yul\":304:345   */\n      tag_123\n        /* \"#utility.yul\":338:344   */\n      dup5\n        /* \"#utility.yul\":333:336   */\n      dup3\n        /* \"#utility.yul\":328:331   */\n      dup6\n        /* \"#utility.yul\":304:345   */\n      tag_124\n      jump\t// in\n    tag_123:\n        /* \"#utility.yul\":91:351   */\n      pop\n      swap4\n      swap3\n      pop\n      pop\n      pop\n      jump\t// out\n        /* \"#utility.yul\":357:496   */\n    tag_125:\n      0x00\n        /* \"#utility.yul\":441:447   */\n      dup2\n        /* \"#utility.yul\":428:448   */\n      calldataload\n        /* \"#utility.yul\":419:448   */\n      swap1\n      pop\n        /* \"#utility.yul\":457:490   */\n      tag_127\n        /* \"#utility.yul\":484:489   */\n      dup2\n        /* \"#utility.yul\":457:490   */\n      tag_128\n      jump\t// in\n    tag_127:\n        /* \"#utility.yul\":409:496   */\n      swap3\n      swap2\n      pop\n      pop\n      jump\t// out\n        /* \"#utility.yul\":516:789   */\n    tag_129:\n      0x00\n        /* \"#utility.yul\":621:624   */\n      dup3\n        /* \"#utility.yul\":614:618   */\n      0x1f\n        /* \"#utility.yul\":606:612   */\n      dup4\n        /* \"#utility.yul\":602:619   */\n      add\n        /* \"#utility.yul\":598:625   */\n      slt\n        /* \"#utility.yul\":588:590   */\n      tag_131\n      jumpi\n        /* \"#utility.yul\":639:640   */\n      0x00\n        /* \"#utility.yul\":636:637   */\n      dup1\n        /* \"#utility.yul\":629:641   */\n      revert\n        /* \"#utility.yul\":588:590   */\n    tag_131:\n        /* \"#utility.yul\":679:685   */\n      dup2\n        /* \"#utility.yul\":666:686   */\n      calldataload\n        /* \"#utility.yul\":704:783   */\n      tag_132\n        /* \"#utility.yul\":779:782   */\n      dup5\n        /* \"#utility.yul\":771:777   */\n      dup3\n        /* \"#utility.yul\":764:768   */\n      0x20\n        /* \"#utility.yul\":756:762   */\n      dup7\n        /* \"#utility.yul\":752:769   */\n      add\n        /* \"#utility.yul\":704:783   */\n      tag_116\n      jump\t// in\n    tag_132:\n        /* \"#utility.yul\":695:783   */\n      swap2\n      pop\n        /* \"#utility.yul\":578:789   */\n      pop\n      swap3\n      swap2\n      pop\n      pop\n      jump\t// out\n        /* \"#utility.yul\":795:934   */\n    tag_133:\n      0x00\n        /* \"#utility.yul\":879:885   */\n      dup2\n        /* \"#utility.yul\":866:886   */\n      calldataload\n        /* \"#utility.yul\":857:886   */\n      swap1\n      pop\n        /* \"#utility.yul\":895:928   */\n      tag_135\n        /* \"#utility.yul\":922:927   */\n      dup2\n        /* \"#utility.yul\":895:928   */\n      tag_136\n      jump\t// in\n    tag_135:\n        /* \"#utility.yul\":847:934   */\n      swap3\n      swap2\n      pop\n      pop\n      jump\t// out\n        /* \"#utility.yul\":940:1202   */\n    tag_23:\n      0x00\n        /* \"#utility.yul\":1048:1050   */\n      0x20\n        /* \"#utility.yul\":1036:1045   */\n      dup3\n        /* \"#utility.yul\":1027:1034   */\n      dup5\n        /* \"#utility.yul\":1023:1046   */\n      sub\n        /* \"#utility.yul\":1019:1051   */\n      slt\n        /* \"#utility.yul\":1016:1018   */\n      iszero\n      tag_138\n      jumpi\n        /* \"#utility.yul\":1064:1065   */\n      0x00\n        /* \"#utility.yul\":1061:1062   */\n      dup1\n        /* \"#utility.yul\":1054:1066   */\n      revert\n        /* \"#utility.yul\":1016:1018   */\n    tag_138:\n        /* \"#utility.yul\":1107:1108   */\n      0x00\n        /* \"#utility.yul\":1132:1185   */\n      tag_139\n        /* \"#utility.yul\":1177:1184   */\n      dup5\n        /* \"#utility.yul\":1168:1174   */\n      dup3\n        /* \"#utility.yul\":1157:1166   */\n      dup6\n        /* \"#utility.yul\":1153:1175   */\n      add\n        /* \"#utility.yul\":1132:1185   */\n      tag_125\n      jump\t// in\n    tag_139:\n        /* \"#utility.yul\":1122:1185   */\n      swap2\n      pop\n        /* \"#utility.yul\":1078:1195   */\n      pop\n        /* \"#utility.yul\":1006:1202   */\n      swap3\n      swap2\n      pop\n      pop\n      jump\t// out\n        /* \"#utility.yul\":1208:1841   */\n    tag_40:\n      0x00\n      dup1\n        /* \"#utility.yul\":1353:1355   */\n      0x40\n        /* \"#utility.yul\":1341:1350   */\n      dup4\n        /* \"#utility.yul\":1332:1339   */\n      dup6\n        /* \"#utility.yul\":1328:1351   */\n      sub\n        /* \"#utility.yul\":1324:1356   */\n      slt\n        /* \"#utility.yul\":1321:1323   */\n      iszero\n      tag_141\n      jumpi\n        /* \"#utility.yul\":1369:1370   */\n      0x00\n        /* \"#utility.yul\":1366:1367   */\n      dup1\n        /* \"#utility.yul\":1359:1371   */\n      revert\n        /* \"#utility.yul\":1321:1323   */\n    tag_141:\n        /* \"#utility.yul\":1440:1441   */\n      0x00\n        /* \"#utility.yul\":1429:1438   */\n      dup4\n        /* \"#utility.yul\":1425:1442   */\n      add\n        /* \"#utility.yul\":1412:1443   */\n      calldataload\n        /* \"#utility.yul\":1470:1488   */\n      0xffffffffffffffff\n        /* \"#utility.yul\":1462:1468   */\n      dup2\n        /* \"#utility.yul\":1459:1489   */\n      gt\n        /* \"#utility.yul\":1456:1458   */\n      iszero\n      tag_142\n      jumpi\n        /* \"#utility.yul\":1502:1503   */\n      0x00\n        /* \"#utility.yul\":1499:1500   */\n      dup1\n        /* \"#utility.yul\":1492:1504   */\n      revert\n        /* \"#utility.yul\":1456:1458   */\n    tag_142:\n        /* \"#utility.yul\":1530:1593   */\n      tag_143\n        /* \"#utility.yul\":1585:1592   */\n      dup6\n        /* \"#utility.yul\":1576:1582   */\n      dup3\n        /* \"#utility.yul\":1565:1574   */\n      dup7\n        /* \"#utility.yul\":1561:1583   */\n      add\n        /* \"#utility.yul\":1530:1593   */\n      tag_129\n      jump\t// in\n    tag_143:\n        /* \"#utility.yul\":1520:1593   */\n      swap3\n      pop\n        /* \"#utility.yul\":1383:1603   */\n      pop\n        /* \"#utility.yul\":1670:1672   */\n      0x20\n        /* \"#utility.yul\":1659:1668   */\n      dup4\n        /* \"#utility.yul\":1655:1673   */\n      add\n        /* \"#utility.yul\":1642:1674   */\n      calldataload\n        /* \"#utility.yul\":1701:1719   */\n      0xffffffffffffffff\n        /* \"#utility.yul\":1693:1699   */\n      dup2\n        /* \"#utility.yul\":1690:1720   */\n      gt\n        /* \"#utility.yul\":1687:1689   */\n      iszero\n      tag_144\n      jumpi\n        /* \"#utility.yul\":1733:1734   */\n      0x00\n        /* \"#utility.yul\":1730:1731   */\n      dup1\n        /* \"#utility.yul\":1723:1735   */\n      revert\n        /* \"#utility.yul\":1687:1689   */\n    tag_144:\n        /* \"#utility.yul\":1761:1824   */\n      tag_145\n        /* \"#utility.yul\":1816:1823   */\n      dup6\n        /* \"#utility.yul\":1807:1813   */\n      dup3\n        /* \"#utility.yul\":1796:1805   */\n      dup7\n        /* \"#utility.yul\":1792:1814   */\n      add\n        /* \"#utility.yul\":1761:1824   */\n      tag_129\n      jump\t// in\n    tag_145:\n        /* \"#utility.yul\":1751:1824   */\n      swap2\n      pop\n        /* \"#utility.yul\":1613:1834   */\n      pop\n        /* \"#utility.yul\":1311:1841   */\n      swap3\n      pop\n      swap3\n      swap1\n      pop\n      jump\t// out\n        /* \"#utility.yul\":1847:2109   */\n    tag_15:\n      0x00\n        /* \"#utility.yul\":1955:1957   */\n      0x20\n        /* \"#utility.yul\":1943:1952   */\n      dup3\n        /* \"#utility.yul\":1934:1941   */\n      dup5\n        /* \"#utility.yul\":1930:1953   */\n      sub\n        /* \"#utility.yul\":1926:1958   */\n      slt\n        /* \"#utility.yul\":1923:1925   */\n      iszero\n      tag_147\n      jumpi\n        /* \"#utility.yul\":1971:1972   */\n      0x00\n        /* \"#utility.yul\":1968:1969   */\n      dup1\n        /* \"#utility.yul\":1961:1973   */\n      revert\n        /* \"#utility.yul\":1923:1925   */\n    tag_147:\n        /* \"#utility.yul\":2014:2015   */\n      0x00\n        /* \"#utility.yul\":2039:2092   */\n      tag_148\n        /* \"#utility.yul\":2084:2091   */\n      dup5\n        /* \"#utility.yul\":2075:2081   */\n      dup3\n        /* \"#utility.yul\":2064:2073   */\n      dup6\n        /* \"#utility.yul\":2060:2082   */\n      add\n        /* \"#utility.yul\":2039:2092   */\n      tag_133\n      jump\t// in\n    tag_148:\n        /* \"#utility.yul\":2029:2092   */\n      swap2\n      pop\n        /* \"#utility.yul\":1985:2102   */\n      pop\n        /* \"#utility.yul\":1913:2109   */\n      swap3\n      swap2\n      pop\n      pop\n      jump\t// out\n        /* \"#utility.yul\":2115:2375   */\n    tag_149:\n      0x00\n        /* \"#utility.yul\":2271:2369   */\n      tag_151\n        /* \"#utility.yul\":2365:2368   */\n      dup4\n        /* \"#utility.yul\":2357:2363   */\n      dup4\n        /* \"#utility.yul\":2271:2369   */\n      tag_152\n      jump\t// in\n    tag_151:\n        /* \"#utility.yul\":2257:2369   */\n      swap1\n      pop\n        /* \"#utility.yul\":2247:2375   */\n      swap3\n      swap2\n      pop\n      pop\n      jump\t// out\n        /* \"#utility.yul\":2381:2489   */\n    tag_153:\n        /* \"#utility.yul\":2458:2482   */\n      tag_155\n        /* \"#utility.yul\":2476:2481   */\n      dup2\n        /* \"#utility.yul\":2458:2482   */\n      tag_156\n      jump\t// in\n    tag_155:\n        /* \"#utility.yul\":2453:2456   */\n      dup3\n        /* \"#utility.yul\":2446:2483   */\n      mstore\n        /* \"#utility.yul\":2436:2489   */\n      pop\n      pop\n      jump\t// out\n        /* \"#utility.yul\":2495:2613   */\n    tag_157:\n        /* \"#utility.yul\":2582:2606   */\n      tag_159\n        /* \"#utility.yul\":2600:2605   */\n      dup2\n        /* \"#utility.yul\":2582:2606   */\n      tag_156\n      jump\t// in\n    tag_159:\n        /* \"#utility.yul\":2577:2580   */\n      dup3\n        /* \"#utility.yul\":2570:2607   */\n      mstore\n        /* \"#utility.yul\":2560:2613   */\n      pop\n      pop\n      jump\t// out\n        /* \"#utility.yul\":2703:3822   */\n    tag_160:\n      0x00\n        /* \"#utility.yul\":2903:2983   */\n      tag_162\n        /* \"#utility.yul\":2977:2982   */\n      dup3\n        /* \"#utility.yul\":2903:2983   */\n      tag_163\n      jump\t// in\n    tag_162:\n        /* \"#utility.yul\":2999:3111   */\n      tag_164\n        /* \"#utility.yul\":3104:3110   */\n      dup2\n        /* \"#utility.yul\":3099:3102   */\n      dup6\n        /* \"#utility.yul\":2999:3111   */\n      tag_165\n      jump\t// in\n    tag_164:\n        /* \"#utility.yul\":2992:3111   */\n      swap4\n      pop\n        /* \"#utility.yul\":3137:3140   */\n      dup4\n        /* \"#utility.yul\":3182:3186   */\n      0x20\n        /* \"#utility.yul\":3174:3180   */\n      dup3\n        /* \"#utility.yul\":3170:3187   */\n      mul\n        /* \"#utility.yul\":3165:3168   */\n      dup6\n        /* \"#utility.yul\":3161:3188   */\n      add\n        /* \"#utility.yul\":3212:3294   */\n      tag_166\n        /* \"#utility.yul\":3288:3293   */\n      dup6\n        /* \"#utility.yul\":3212:3294   */\n      tag_167\n      jump\t// in\n    tag_166:\n        /* \"#utility.yul\":3317:3324   */\n      dup1\n        /* \"#utility.yul\":3348:3349   */\n      0x00\n        /* \"#utility.yul\":3333:3777   */\n    tag_168:\n        /* \"#utility.yul\":3358:3364   */\n      dup6\n        /* \"#utility.yul\":3355:3356   */\n      dup2\n        /* \"#utility.yul\":3352:3365   */\n      lt\n        /* \"#utility.yul\":3333:3777   */\n      iszero\n      tag_170\n      jumpi\n        /* \"#utility.yul\":3429:3438   */\n      dup5\n        /* \"#utility.yul\":3423:3427   */\n      dup5\n        /* \"#utility.yul\":3419:3439   */\n      sub\n        /* \"#utility.yul\":3414:3417   */\n      dup10\n        /* \"#utility.yul\":3407:3440   */\n      mstore\n        /* \"#utility.yul\":3480:3486   */\n      dup2\n        /* \"#utility.yul\":3474:3487   */\n      mload\n        /* \"#utility.yul\":3508:3624   */\n      tag_171\n        /* \"#utility.yul\":3619:3623   */\n      dup6\n        /* \"#utility.yul\":3604:3617   */\n      dup3\n        /* \"#utility.yul\":3508:3624   */\n      tag_149\n      jump\t// in\n    tag_171:\n        /* \"#utility.yul\":3500:3624   */\n      swap5\n      pop\n        /* \"#utility.yul\":3647:3733   */\n      tag_172\n        /* \"#utility.yul\":3726:3732   */\n      dup4\n        /* \"#utility.yul\":3647:3733   */\n      tag_173\n      jump\t// in\n    tag_172:\n        /* \"#utility.yul\":3637:3733   */\n      swap3\n      pop\n        /* \"#utility.yul\":3762:3766   */\n      0x20\n        /* \"#utility.yul\":3757:3760   */\n      dup11\n        /* \"#utility.yul\":3753:3767   */\n      add\n        /* \"#utility.yul\":3746:3767   */\n      swap10\n      pop\n        /* \"#utility.yul\":3393:3777   */\n      pop\n        /* \"#utility.yul\":3380:3381   */\n      0x01\n        /* \"#utility.yul\":3377:3378   */\n      dup2\n        /* \"#utility.yul\":3373:3382   */\n      add\n        /* \"#utility.yul\":3368:3382   */\n      swap1\n      pop\n        /* \"#utility.yul\":3333:3777   */\n      jump(tag_168)\n    tag_170:\n        /* \"#utility.yul\":3337:3351   */\n      pop\n        /* \"#utility.yul\":3793:3797   */\n      dup3\n        /* \"#utility.yul\":3786:3797   */\n      swap8\n      pop\n        /* \"#utility.yul\":3813:3816   */\n      dup8\n        /* \"#utility.yul\":3806:3816   */\n      swap6\n      pop\n        /* \"#utility.yul\":2879:3822   */\n      pop\n      pop\n      pop\n      pop\n      pop\n      swap3\n      swap2\n      pop\n      pop\n      jump\t// out\n        /* \"#utility.yul\":3828:3937   */\n    tag_174:\n        /* \"#utility.yul\":3909:3930   */\n      tag_176\n        /* \"#utility.yul\":3924:3929   */\n      dup2\n        /* \"#utility.yul\":3909:3930   */\n      tag_177\n      jump\t// in\n    tag_176:\n        /* \"#utility.yul\":3904:3907   */\n      dup3\n        /* \"#utility.yul\":3897:3931   */\n      mstore\n        /* \"#utility.yul\":3887:3937   */\n      pop\n      pop\n      jump\t// out\n        /* \"#utility.yul\":3943:4287   */\n    tag_178:\n      0x00\n        /* \"#utility.yul\":4049:4088   */\n      tag_180\n        /* \"#utility.yul\":4082:4087   */\n      dup3\n        /* \"#utility.yul\":4049:4088   */\n      tag_181\n      jump\t// in\n    tag_180:\n        /* \"#utility.yul\":4104:4165   */\n      tag_182\n        /* \"#utility.yul\":4158:4164   */\n      dup2\n        /* \"#utility.yul\":4153:4156   */\n      dup6\n        /* \"#utility.yul\":4104:4165   */\n      tag_183\n      jump\t// in\n    tag_182:\n        /* \"#utility.yul\":4097:4165   */\n      swap4\n      pop\n        /* \"#utility.yul\":4174:4226   */\n      tag_184\n        /* \"#utility.yul\":4219:4225   */\n      dup2\n        /* \"#utility.yul\":4214:4217   */\n      dup6\n        /* \"#utility.yul\":4207:4211   */\n      0x20\n        /* \"#utility.yul\":4200:4205   */\n      dup7\n        /* \"#utility.yul\":4196:4212   */\n      add\n        /* \"#utility.yul\":4174:4226   */\n      tag_185\n      jump\t// in\n    tag_184:\n        /* \"#utility.yul\":4251:4280   */\n      tag_186\n        /* \"#utility.yul\":4273:4279   */\n      dup2\n        /* \"#utility.yul\":4251:4280   */\n      tag_187\n      jump\t// in\n    tag_186:\n        /* \"#utility.yul\":4246:4249   */\n      dup5\n        /* \"#utility.yul\":4242:4281   */\n      add\n        /* \"#utility.yul\":4235:4281   */\n      swap2\n      pop\n        /* \"#utility.yul\":4025:4287   */\n      pop\n      swap3\n      swap2\n      pop\n      pop\n      jump\t// out\n        /* \"#utility.yul\":4293:4657   */\n    tag_188:\n      0x00\n        /* \"#utility.yul\":4409:4448   */\n      tag_190\n        /* \"#utility.yul\":4442:4447   */\n      dup3\n        /* \"#utility.yul\":4409:4448   */\n      tag_181\n      jump\t// in\n    tag_190:\n        /* \"#utility.yul\":4464:4535   */\n      tag_191\n        /* \"#utility.yul\":4528:4534   */\n      dup2\n        /* \"#utility.yul\":4523:4526   */\n      dup6\n        /* \"#utility.yul\":4464:4535   */\n      tag_192\n      jump\t// in\n    tag_191:\n        /* \"#utility.yul\":4457:4535   */\n      swap4\n      pop\n        /* \"#utility.yul\":4544:4596   */\n      tag_193\n        /* \"#utility.yul\":4589:4595   */\n      dup2\n        /* \"#utility.yul\":4584:4587   */\n      dup6\n        /* \"#utility.yul\":4577:4581   */\n      0x20\n        /* \"#utility.yul\":4570:4575   */\n      dup7\n        /* \"#utility.yul\":4566:4582   */\n      add\n        /* \"#utility.yul\":4544:4596   */\n      tag_185\n      jump\t// in\n    tag_193:\n        /* \"#utility.yul\":4621:4650   */\n      tag_194\n        /* \"#utility.yul\":4643:4649   */\n      dup2\n        /* \"#utility.yul\":4621:4650   */\n      tag_187\n      jump\t// in\n    tag_194:\n        /* \"#utility.yul\":4616:4619   */\n      dup5\n        /* \"#utility.yul\":4612:4651   */\n      add\n        /* \"#utility.yul\":4605:4651   */\n      swap2\n      pop\n        /* \"#utility.yul\":4385:4657   */\n      pop\n      swap3\n      swap2\n      pop\n      pop\n      jump\t// out\n        /* \"#utility.yul\":4663:4987   */\n    tag_195:\n      0x00\n        /* \"#utility.yul\":4826:4893   */\n      tag_197\n        /* \"#utility.yul\":4890:4892   */\n      0x1a\n        /* \"#utility.yul\":4885:4888   */\n      dup4\n        /* \"#utility.yul\":4826:4893   */\n      tag_192\n      jump\t// in\n    tag_197:\n        /* \"#utility.yul\":4819:4893   */\n      swap2\n      pop\n        /* \"#utility.yul\":4923:4951   */\n      0x4769744875622055524c2063616e6e6f7420626520656d707479000000000000\n        /* \"#utility.yul\":4919:4920   */\n      0x00\n        /* \"#utility.yul\":4914:4917   */\n      dup4\n        /* \"#utility.yul\":4910:4921   */\n      add\n        /* \"#utility.yul\":4903:4952   */\n      mstore\n        /* \"#utility.yul\":4978:4980   */\n      0x20\n        /* \"#utility.yul\":4973:4976   */\n      dup3\n        /* \"#utility.yul\":4969:4981   */\n      add\n        /* \"#utility.yul\":4962:4981   */\n      swap1\n      pop\n        /* \"#utility.yul\":4809:4987   */\n      swap2\n      swap1\n      pop\n      jump\t// out\n        /* \"#utility.yul\":4993:5308   */\n    tag_198:\n      0x00\n        /* \"#utility.yul\":5156:5223   */\n      tag_200\n        /* \"#utility.yul\":5220:5222   */\n      0x11\n        /* \"#utility.yul\":5215:5218   */\n      dup4\n        /* \"#utility.yul\":5156:5223   */\n      tag_192\n      jump\t// in\n    tag_200:\n        /* \"#utility.yul\":5149:5223   */\n      swap2\n      pop\n        /* \"#utility.yul\":5253:5272   */\n      0x416c7265616479207375626d6974746564000000000000000000000000000000\n        /* \"#utility.yul\":5249:5250   */\n      0x00\n        /* \"#utility.yul\":5244:5247   */\n      dup4\n        /* \"#utility.yul\":5240:5251   */\n      add\n        /* \"#utility.yul\":5233:5273   */\n      mstore\n        /* \"#utility.yul\":5299:5301   */\n      0x20\n        /* \"#utility.yul\":5294:5297   */\n      dup3\n        /* \"#utility.yul\":5290:5302   */\n      add\n        /* \"#utility.yul\":5283:5302   */\n      swap1\n      pop\n        /* \"#utility.yul\":5139:5308   */\n      swap2\n      swap1\n      pop\n      jump\t// out\n        /* \"#utility.yul\":5314:5627   */\n    tag_201:\n      0x00\n        /* \"#utility.yul\":5477:5544   */\n      tag_203\n        /* \"#utility.yul\":5541:5543   */\n      0x0f\n        /* \"#utility.yul\":5536:5539   */\n      dup4\n        /* \"#utility.yul\":5477:5544   */\n      tag_192\n      jump\t// in\n    tag_203:\n        /* \"#utility.yul\":5470:5544   */\n      swap2\n      pop\n        /* \"#utility.yul\":5574:5591   */\n      0x446561646c696e65207061737365640000000000000000000000000000000000\n        /* \"#utility.yul\":5570:5571   */\n      0x00\n        /* \"#utility.yul\":5565:5568   */\n      dup4\n        /* \"#utility.yul\":5561:5572   */\n      add\n        /* \"#utility.yul\":5554:5592   */\n      mstore\n        /* \"#utility.yul\":5618:5620   */\n      0x20\n        /* \"#utility.yul\":5613:5616   */\n      dup3\n        /* \"#utility.yul\":5609:5621   */\n      add\n        /* \"#utility.yul\":5602:5621   */\n      swap1\n      pop\n        /* \"#utility.yul\":5460:5627   */\n      swap2\n      swap1\n      pop\n      jump\t// out\n        /* \"#utility.yul\":5633:5950   */\n    tag_204:\n      0x00\n        /* \"#utility.yul\":5796:5863   */\n      tag_206\n        /* \"#utility.yul\":5860:5862   */\n      0x13\n        /* \"#utility.yul\":5855:5858   */\n      dup4\n        /* \"#utility.yul\":5796:5863   */\n      tag_192\n      jump\t// in\n    tag_206:\n        /* \"#utility.yul\":5789:5863   */\n      swap2\n      pop\n        /* \"#utility.yul\":5893:5914   */\n      0x4e6f207375626d697373696f6e73206c65667400000000000000000000000000\n        /* \"#utility.yul\":5889:5890   */\n      0x00\n        /* \"#utility.yul\":5884:5887   */\n      dup4\n        /* \"#utility.yul\":5880:5891   */\n      add\n        /* \"#utility.yul\":5873:5915   */\n      mstore\n        /* \"#utility.yul\":5941:5943   */\n      0x20\n        /* \"#utility.yul\":5936:5939   */\n      dup3\n        /* \"#utility.yul\":5932:5944   */\n      add\n        /* \"#utility.yul\":5925:5944   */\n      swap1\n      pop\n        /* \"#utility.yul\":5779:5950   */\n      swap2\n      swap1\n      pop\n      jump\t// out\n        /* \"#utility.yul\":5956:6281   */\n    tag_207:\n      0x00\n        /* \"#utility.yul\":6119:6186   */\n      tag_209\n        /* \"#utility.yul\":6183:6185   */\n      0x1b\n        /* \"#utility.yul\":6178:6181   */\n      dup4\n        /* \"#utility.yul\":6119:6186   */\n      tag_192\n      jump\t// in\n    tag_209:\n        /* \"#utility.yul\":6112:6186   */\n      swap2\n      pop\n        /* \"#utility.yul\":6216:6245   */\n      0x54656c656772616d2049442063616e6e6f7420626520656d7074790000000000\n        /* \"#utility.yul\":6212:6213   */\n      0x00\n        /* \"#utility.yul\":6207:6210   */\n      dup4\n        /* \"#utility.yul\":6203:6214   */\n      add\n        /* \"#utility.yul\":6196:6246   */\n      mstore\n        /* \"#utility.yul\":6272:6274   */\n      0x20\n        /* \"#utility.yul\":6267:6270   */\n      dup3\n        /* \"#utility.yul\":6263:6275   */\n      add\n        /* \"#utility.yul\":6256:6275   */\n      swap1\n      pop\n        /* \"#utility.yul\":6102:6281   */\n      swap2\n      swap1\n      pop\n      jump\t// out\n        /* \"#utility.yul\":6287:6609   */\n    tag_210:\n      0x00\n        /* \"#utility.yul\":6450:6517   */\n      tag_212\n        /* \"#utility.yul\":6514:6516   */\n      0x18\n        /* \"#utility.yul\":6509:6512   */\n      dup4\n        /* \"#utility.yul\":6450:6517   */\n      tag_192\n      jump\t// in\n    tag_212:\n        /* \"#utility.yul\":6443:6517   */\n      swap2\n      pop\n        /* \"#utility.yul\":6547:6573   */\n      0x4f6e6c79206f776e65722063616e2063616c6c20746869730000000000000000\n        /* \"#utility.yul\":6543:6544   */\n      0x00\n        /* \"#utility.yul\":6538:6541   */\n      dup4\n        /* \"#utility.yul\":6534:6545   */\n      add\n        /* \"#utility.yul\":6527:6574   */\n      mstore\n        /* \"#utility.yul\":6600:6602   */\n      0x20\n        /* \"#utility.yul\":6595:6598   */\n      dup3\n        /* \"#utility.yul\":6591:6603   */\n      add\n        /* \"#utility.yul\":6584:6603   */\n      swap1\n      pop\n        /* \"#utility.yul\":6433:6609   */\n      swap2\n      swap1\n      pop\n      jump\t// out\n        /* \"#utility.yul\":6695:7554   */\n    tag_152:\n      0x00\n        /* \"#utility.yul\":6842:6846   */\n      0x60\n        /* \"#utility.yul\":6837:6840   */\n      dup4\n        /* \"#utility.yul\":6833:6847   */\n      add\n        /* \"#utility.yul\":6934:6938   */\n      0x00\n        /* \"#utility.yul\":6927:6932   */\n      dup4\n        /* \"#utility.yul\":6923:6939   */\n      add\n        /* \"#utility.yul\":6917:6940   */\n      mload\n        /* \"#utility.yul\":6987:6990   */\n      dup5\n        /* \"#utility.yul\":6981:6985   */\n      dup3\n        /* \"#utility.yul\":6977:6991   */\n      sub\n        /* \"#utility.yul\":6970:6974   */\n      0x00\n        /* \"#utility.yul\":6965:6968   */\n      dup7\n        /* \"#utility.yul\":6961:6975   */\n      add\n        /* \"#utility.yul\":6954:6992   */\n      mstore\n        /* \"#utility.yul\":7013:7086   */\n      tag_214\n        /* \"#utility.yul\":7081:7085   */\n      dup3\n        /* \"#utility.yul\":7067:7079   */\n      dup3\n        /* \"#utility.yul\":7013:7086   */\n      tag_178\n      jump\t// in\n    tag_214:\n        /* \"#utility.yul\":7005:7086   */\n      swap2\n      pop\n        /* \"#utility.yul\":6857:7097   */\n      pop\n        /* \"#utility.yul\":7185:7189   */\n      0x20\n        /* \"#utility.yul\":7178:7183   */\n      dup4\n        /* \"#utility.yul\":7174:7190   */\n      add\n        /* \"#utility.yul\":7168:7191   */\n      mload\n        /* \"#utility.yul\":7238:7241   */\n      dup5\n        /* \"#utility.yul\":7232:7236   */\n      dup3\n        /* \"#utility.yul\":7228:7242   */\n      sub\n        /* \"#utility.yul\":7221:7225   */\n      0x20\n        /* \"#utility.yul\":7216:7219   */\n      dup7\n        /* \"#utility.yul\":7212:7226   */\n      add\n        /* \"#utility.yul\":7205:7243   */\n      mstore\n        /* \"#utility.yul\":7264:7337   */\n      tag_215\n        /* \"#utility.yul\":7332:7336   */\n      dup3\n        /* \"#utility.yul\":7318:7330   */\n      dup3\n        /* \"#utility.yul\":7264:7337   */\n      tag_178\n      jump\t// in\n    tag_215:\n        /* \"#utility.yul\":7256:7337   */\n      swap2\n      pop\n        /* \"#utility.yul\":7107:7348   */\n      pop\n        /* \"#utility.yul\":7435:7439   */\n      0x40\n        /* \"#utility.yul\":7428:7433   */\n      dup4\n        /* \"#utility.yul\":7424:7440   */\n      add\n        /* \"#utility.yul\":7418:7441   */\n      mload\n        /* \"#utility.yul\":7454:7517   */\n      tag_216\n        /* \"#utility.yul\":7511:7515   */\n      0x40\n        /* \"#utility.yul\":7506:7509   */\n      dup7\n        /* \"#utility.yul\":7502:7516   */\n      add\n        /* \"#utility.yul\":7488:7500   */\n      dup3\n        /* \"#utility.yul\":7454:7517   */\n      tag_153\n      jump\t// in\n    tag_216:\n        /* \"#utility.yul\":7358:7527   */\n      pop\n        /* \"#utility.yul\":7544:7548   */\n      dup1\n        /* \"#utility.yul\":7537:7548   */\n      swap2\n      pop\n        /* \"#utility.yul\":6811:7554   */\n      pop\n      swap3\n      swap2\n      pop\n      pop\n      jump\t// out\n        /* \"#utility.yul\":7560:7678   */\n    tag_217:\n        /* \"#utility.yul\":7647:7671   */\n      tag_219\n        /* \"#utility.yul\":7665:7670   */\n      dup2\n        /* \"#utility.yul\":7647:7671   */\n      tag_220\n      jump\t// in\n    tag_219:\n        /* \"#utility.yul\":7642:7645   */\n      dup3\n        /* \"#utility.yul\":7635:7672   */\n      mstore\n        /* \"#utility.yul\":7625:7678   */\n      pop\n      pop\n      jump\t// out\n        /* \"#utility.yul\":7684:7906   */\n    tag_37:\n      0x00\n        /* \"#utility.yul\":7815:7817   */\n      0x20\n        /* \"#utility.yul\":7804:7813   */\n      dup3\n        /* \"#utility.yul\":7800:7818   */\n      add\n        /* \"#utility.yul\":7792:7818   */\n      swap1\n      pop\n        /* \"#utility.yul\":7828:7899   */\n      tag_222\n        /* \"#utility.yul\":7896:7897   */\n      0x00\n        /* \"#utility.yul\":7885:7894   */\n      dup4\n        /* \"#utility.yul\":7881:7898   */\n      add\n        /* \"#utility.yul\":7872:7878   */\n      dup5\n        /* \"#utility.yul\":7828:7899   */\n      tag_157\n      jump\t// in\n    tag_222:\n        /* \"#utility.yul\":7782:7906   */\n      swap3\n      swap2\n      pop\n      pop\n      jump\t// out\n        /* \"#utility.yul\":7912:8389   */\n    tag_30:\n      0x00\n        /* \"#utility.yul\":8145:8147   */\n      0x20\n        /* \"#utility.yul\":8134:8143   */\n      dup3\n        /* \"#utility.yul\":8130:8148   */\n      add\n        /* \"#utility.yul\":8122:8148   */\n      swap1\n      pop\n        /* \"#utility.yul\":8194:8203   */\n      dup2\n        /* \"#utility.yul\":8188:8192   */\n      dup2\n        /* \"#utility.yul\":8184:8204   */\n      sub\n        /* \"#utility.yul\":8180:8181   */\n      0x00\n        /* \"#utility.yul\":8169:8178   */\n      dup4\n        /* \"#utility.yul\":8165:8182   */\n      add\n        /* \"#utility.yul\":8158:8205   */\n      mstore\n        /* \"#utility.yul\":8222:8382   */\n      tag_224\n        /* \"#utility.yul\":8377:8381   */\n      dup2\n        /* \"#utility.yul\":8368:8374   */\n      dup5\n        /* \"#utility.yul\":8222:8382   */\n      tag_160\n      jump\t// in\n    tag_224:\n        /* \"#utility.yul\":8214:8382   */\n      swap1\n      pop\n        /* \"#utility.yul\":8112:8389   */\n      swap3\n      swap2\n      pop\n      pop\n      jump\t// out\n        /* \"#utility.yul\":8395:8605   */\n    tag_26:\n      0x00\n        /* \"#utility.yul\":8520:8522   */\n      0x20\n        /* \"#utility.yul\":8509:8518   */\n      dup3\n        /* \"#utility.yul\":8505:8523   */\n      add\n        /* \"#utility.yul\":8497:8523   */\n      swap1\n      pop\n        /* \"#utility.yul\":8533:8598   */\n      tag_226\n        /* \"#utility.yul\":8595:8596   */\n      0x00\n        /* \"#utility.yul\":8584:8593   */\n      dup4\n        /* \"#utility.yul\":8580:8597   */\n      add\n        /* \"#utility.yul\":8571:8577   */\n      dup5\n        /* \"#utility.yul\":8533:8598   */\n      tag_174\n      jump\t// in\n    tag_226:\n        /* \"#utility.yul\":8487:8605   */\n      swap3\n      swap2\n      pop\n      pop\n      jump\t// out\n        /* \"#utility.yul\":8611:9235   */\n    tag_46:\n      0x00\n        /* \"#utility.yul\":8838:8840   */\n      0x60\n        /* \"#utility.yul\":8827:8836   */\n      dup3\n        /* \"#utility.yul\":8823:8841   */\n      add\n        /* \"#utility.yul\":8815:8841   */\n      swap1\n      pop\n        /* \"#utility.yul\":8887:8896   */\n      dup2\n        /* \"#utility.yul\":8881:8885   */\n      dup2\n        /* \"#utility.yul\":8877:8897   */\n      sub\n        /* \"#utility.yul\":8873:8874   */\n      0x00\n        /* \"#utility.yul\":8862:8871   */\n      dup4\n        /* \"#utility.yul\":8858:8875   */\n      add\n        /* \"#utility.yul\":8851:8898   */\n      mstore\n        /* \"#utility.yul\":8915:8993   */\n      tag_228\n        /* \"#utility.yul\":8988:8992   */\n      dup2\n        /* \"#utility.yul\":8979:8985   */\n      dup7\n        /* \"#utility.yul\":8915:8993   */\n      tag_188\n      jump\t// in\n    tag_228:\n        /* \"#utility.yul\":8907:8993   */\n      swap1\n      pop\n        /* \"#utility.yul\":9040:9049   */\n      dup2\n        /* \"#utility.yul\":9034:9038   */\n      dup2\n        /* \"#utility.yul\":9030:9050   */\n      sub\n        /* \"#utility.yul\":9025:9027   */\n      0x20\n        /* \"#utility.yul\":9014:9023   */\n      dup4\n        /* \"#utility.yul\":9010:9028   */\n      add\n        /* \"#utility.yul\":9003:9051   */\n      mstore\n        /* \"#utility.yul\":9068:9146   */\n      tag_229\n        /* \"#utility.yul\":9141:9145   */\n      dup2\n        /* \"#utility.yul\":9132:9138   */\n      dup6\n        /* \"#utility.yul\":9068:9146   */\n      tag_188\n      jump\t// in\n    tag_229:\n        /* \"#utility.yul\":9060:9146   */\n      swap1\n      pop\n        /* \"#utility.yul\":9156:9228   */\n      tag_230\n        /* \"#utility.yul\":9224:9226   */\n      0x40\n        /* \"#utility.yul\":9213:9222   */\n      dup4\n        /* \"#utility.yul\":9209:9227   */\n      add\n        /* \"#utility.yul\":9200:9206   */\n      dup5\n        /* \"#utility.yul\":9156:9228   */\n      tag_157\n      jump\t// in\n    tag_230:\n        /* \"#utility.yul\":8805:9235   */\n      swap5\n      swap4\n      pop\n      pop\n      pop\n      pop\n      jump\t// out\n        /* \"#utility.yul\":9241:9660   */\n    tag_73:\n      0x00\n        /* \"#utility.yul\":9445:9447   */\n      0x20\n        /* \"#utility.yul\":9434:9443   */\n      dup3\n        /* \"#utility.yul\":9430:9448   */\n      add\n        /* \"#utility.yul\":9422:9448   */\n      swap1\n      pop\n        /* \"#utility.yul\":9494:9503   */\n      dup2\n        /* \"#utility.yul\":9488:9492   */\n      dup2\n        /* \"#utility.yul\":9484:9504   */\n      sub\n        /* \"#utility.yul\":9480:9481   */\n      0x00\n        /* \"#utility.yul\":9469:9478   */\n      dup4\n        /* \"#utility.yul\":9465:9482   */\n      add\n        /* \"#utility.yul\":9458:9505   */\n      mstore\n        /* \"#utility.yul\":9522:9653   */\n      tag_232\n        /* \"#utility.yul\":9648:9652   */\n      dup2\n        /* \"#utility.yul\":9522:9653   */\n      tag_195\n      jump\t// in\n    tag_232:\n        /* \"#utility.yul\":9514:9653   */\n      swap1\n      pop\n        /* \"#utility.yul\":9412:9660   */\n      swap2\n      swap1\n      pop\n      jump\t// out\n        /* \"#utility.yul\":9666:10085   */\n    tag_86:\n      0x00\n        /* \"#utility.yul\":9870:9872   */\n      0x20\n        /* \"#utility.yul\":9859:9868   */\n      dup3\n        /* \"#utility.yul\":9855:9873   */\n      add\n        /* \"#utility.yul\":9847:9873   */\n      swap1\n      pop\n        /* \"#utility.yul\":9919:9928   */\n      dup2\n        /* \"#utility.yul\":9913:9917   */\n      dup2\n        /* \"#utility.yul\":9909:9929   */\n      sub\n        /* \"#utility.yul\":9905:9906   */\n      0x00\n        /* \"#utility.yul\":9894:9903   */\n      dup4\n        /* \"#utility.yul\":9890:9907   */\n      add\n        /* \"#utility.yul\":9883:9930   */\n      mstore\n        /* \"#utility.yul\":9947:10078   */\n      tag_234\n        /* \"#utility.yul\":10073:10077   */\n      dup2\n        /* \"#utility.yul\":9947:10078   */\n      tag_198\n      jump\t// in\n    tag_234:\n        /* \"#utility.yul\":9939:10078   */\n      swap1\n      pop\n        /* \"#utility.yul\":9837:10085   */\n      swap2\n      swap1\n      pop\n      jump\t// out\n        /* \"#utility.yul\":10091:10510   */\n    tag_80:\n      0x00\n        /* \"#utility.yul\":10295:10297   */\n      0x20\n        /* \"#utility.yul\":10284:10293   */\n      dup3\n        /* \"#utility.yul\":10280:10298   */\n      add\n        /* \"#utility.yul\":10272:10298   */\n      swap1\n      pop\n        /* \"#utility.yul\":10344:10353   */\n      dup2\n        /* \"#utility.yul\":10338:10342   */\n      dup2\n        /* \"#utility.yul\":10334:10354   */\n      sub\n        /* \"#utility.yul\":10330:10331   */\n      0x00\n        /* \"#utility.yul\":10319:10328   */\n      dup4\n        /* \"#utility.yul\":10315:10332   */\n      add\n        /* \"#utility.yul\":10308:10355   */\n      mstore\n        /* \"#utility.yul\":10372:10503   */\n      tag_236\n        /* \"#utility.yul\":10498:10502   */\n      dup2\n        /* \"#utility.yul\":10372:10503   */\n      tag_201\n      jump\t// in\n    tag_236:\n        /* \"#utility.yul\":10364:10503   */\n      swap1\n      pop\n        /* \"#utility.yul\":10262:10510   */\n      swap2\n      swap1\n      pop\n      jump\t// out\n        /* \"#utility.yul\":10516:10935   */\n    tag_83:\n      0x00\n        /* \"#utility.yul\":10720:10722   */\n      0x20\n        /* \"#utility.yul\":10709:10718   */\n      dup3\n        /* \"#utility.yul\":10705:10723   */\n      add\n        /* \"#utility.yul\":10697:10723   */\n      swap1\n      pop\n        /* \"#utility.yul\":10769:10778   */\n      dup2\n        /* \"#utility.yul\":10763:10767   */\n      dup2\n        /* \"#utility.yul\":10759:10779   */\n      sub\n        /* \"#utility.yul\":10755:10756   */\n      0x00\n        /* \"#utility.yul\":10744:10753   */\n      dup4\n        /* \"#utility.yul\":10740:10757   */\n      add\n        /* \"#utility.yul\":10733:10780   */\n      mstore\n        /* \"#utility.yul\":10797:10928   */\n      tag_238\n        /* \"#utility.yul\":10923:10927   */\n      dup2\n        /* \"#utility.yul\":10797:10928   */\n      tag_204\n      jump\t// in\n    tag_238:\n        /* \"#utility.yul\":10789:10928   */\n      swap1\n      pop\n        /* \"#utility.yul\":10687:10935   */\n      swap2\n      swap1\n      pop\n      jump\t// out\n        /* \"#utility.yul\":10941:11360   */\n    tag_76:\n      0x00\n        /* \"#utility.yul\":11145:11147   */\n      0x20\n        /* \"#utility.yul\":11134:11143   */\n      dup3\n        /* \"#utility.yul\":11130:11148   */\n      add\n        /* \"#utility.yul\":11122:11148   */\n      swap1\n      pop\n        /* \"#utility.yul\":11194:11203   */\n      dup2\n        /* \"#utility.yul\":11188:11192   */\n      dup2\n        /* \"#utility.yul\":11184:11204   */\n      sub\n        /* \"#utility.yul\":11180:11181   */\n      0x00\n        /* \"#utility.yul\":11169:11178   */\n      dup4\n        /* \"#utility.yul\":11165:11182   */\n      add\n        /* \"#utility.yul\":11158:11205   */\n      mstore\n        /* \"#utility.yul\":11222:11353   */\n      tag_240\n        /* \"#utility.yul\":11348:11352   */\n      dup2\n        /* \"#utility.yul\":11222:11353   */\n      tag_207\n      jump\t// in\n    tag_240:\n        /* \"#utility.yul\":11214:11353   */\n      swap1\n      pop\n        /* \"#utility.yul\":11112:11360   */\n      swap2\n      swap1\n      pop\n      jump\t// out\n        /* \"#utility.yul\":11366:11785   */\n    tag_53:\n      0x00\n        /* \"#utility.yul\":11570:11572   */\n      0x20\n        /* \"#utility.yul\":11559:11568   */\n      dup3\n        /* \"#utility.yul\":11555:11573   */\n      add\n        /* \"#utility.yul\":11547:11573   */\n      swap1\n      pop\n        /* \"#utility.yul\":11619:11628   */\n      dup2\n        /* \"#utility.yul\":11613:11617   */\n      dup2\n        /* \"#utility.yul\":11609:11629   */\n      sub\n        /* \"#utility.yul\":11605:11606   */\n      0x00\n        /* \"#utility.yul\":11594:11603   */\n      dup4\n        /* \"#utility.yul\":11590:11607   */\n      add\n        /* \"#utility.yul\":11583:11630   */\n      mstore\n        /* \"#utility.yul\":11647:11778   */\n      tag_242\n        /* \"#utility.yul\":11773:11777   */\n      dup2\n        /* \"#utility.yul\":11647:11778   */\n      tag_210\n      jump\t// in\n    tag_242:\n        /* \"#utility.yul\":11639:11778   */\n      swap1\n      pop\n        /* \"#utility.yul\":11537:11785   */\n      swap2\n      swap1\n      pop\n      jump\t// out\n        /* \"#utility.yul\":11791:12013   */\n    tag_20:\n      0x00\n        /* \"#utility.yul\":11922:11924   */\n      0x20\n        /* \"#utility.yul\":11911:11920   */\n      dup3\n        /* \"#utility.yul\":11907:11925   */\n      add\n        /* \"#utility.yul\":11899:11925   */\n      swap1\n      pop\n        /* \"#utility.yul\":11935:12006   */\n      tag_244\n        /* \"#utility.yul\":12003:12004   */\n      0x00\n        /* \"#utility.yul\":11992:12001   */\n      dup4\n        /* \"#utility.yul\":11988:12005   */\n      add\n        /* \"#utility.yul\":11979:11985   */\n      dup5\n        /* \"#utility.yul\":11935:12006   */\n      tag_217\n      jump\t// in\n    tag_244:\n        /* \"#utility.yul\":11889:12013   */\n      swap3\n      swap2\n      pop\n      pop\n      jump\t// out\n        /* \"#utility.yul\":12019:12302   */\n    tag_121:\n      0x00\n        /* \"#utility.yul\":12085:12087   */\n      0x40\n        /* \"#utility.yul\":12079:12088   */\n      mload\n        /* \"#utility.yul\":12069:12088   */\n      swap1\n      pop\n        /* \"#utility.yul\":12127:12131   */\n      dup2\n        /* \"#utility.yul\":12119:12125   */\n      dup2\n        /* \"#utility.yul\":12115:12132   */\n      add\n        /* \"#utility.yul\":12234:12240   */\n      dup2\n        /* \"#utility.yul\":12222:12232   */\n      dup2\n        /* \"#utility.yul\":12219:12241   */\n      lt\n        /* \"#utility.yul\":12198:12216   */\n      0xffffffffffffffff\n        /* \"#utility.yul\":12186:12196   */\n      dup3\n        /* \"#utility.yul\":12183:12217   */\n      gt\n        /* \"#utility.yul\":12180:12242   */\n      or\n        /* \"#utility.yul\":12177:12179   */\n      iszero\n      tag_246\n      jumpi\n        /* \"#utility.yul\":12245:12263   */\n      tag_247\n      tag_248\n      jump\t// in\n    tag_247:\n        /* \"#utility.yul\":12177:12179   */\n    tag_246:\n        /* \"#utility.yul\":12285:12295   */\n      dup1\n        /* \"#utility.yul\":12281:12283   */\n      0x40\n        /* \"#utility.yul\":12274:12296   */\n      mstore\n        /* \"#utility.yul\":12059:12302   */\n      pop\n      swap2\n      swap1\n      pop\n      jump\t// out\n        /* \"#utility.yul\":12308:12640   */\n    tag_120:\n      0x00\n        /* \"#utility.yul\":12460:12478   */\n      0xffffffffffffffff\n        /* \"#utility.yul\":12452:12458   */\n      dup3\n        /* \"#utility.yul\":12449:12479   */\n      gt\n        /* \"#utility.yul\":12446:12448   */\n      iszero\n      tag_250\n      jumpi\n        /* \"#utility.yul\":12482:12500   */\n      tag_251\n      tag_248\n      jump\t// in\n    tag_251:\n        /* \"#utility.yul\":12446:12448   */\n    tag_250:\n        /* \"#utility.yul\":12567:12571   */\n      0x1f\n        /* \"#utility.yul\":12563:12572   */\n      not\n        /* \"#utility.yul\":12556:12560   */\n      0x1f\n        /* \"#utility.yul\":12548:12554   */\n      dup4\n        /* \"#utility.yul\":12544:12561   */\n      add\n        /* \"#utility.yul\":12540:12573   */\n      and\n        /* \"#utility.yul\":12532:12573   */\n      swap1\n      pop\n        /* \"#utility.yul\":12628:12632   */\n      0x20\n        /* \"#utility.yul\":12622:12626   */\n      dup2\n        /* \"#utility.yul\":12618:12633   */\n      add\n        /* \"#utility.yul\":12610:12633   */\n      swap1\n      pop\n        /* \"#utility.yul\":12375:12640   */\n      swap2\n      swap1\n      pop\n      jump\t// out\n        /* \"#utility.yul\":12646:12804   */\n    tag_167:\n      0x00\n        /* \"#utility.yul\":12762:12765   */\n      dup2\n        /* \"#utility.yul\":12754:12765   */\n      swap1\n      pop\n        /* \"#utility.yul\":12792:12796   */\n      0x20\n        /* \"#utility.yul\":12787:12790   */\n      dup3\n        /* \"#utility.yul\":12783:12797   */\n      add\n        /* \"#utility.yul\":12775:12797   */\n      swap1\n      pop\n        /* \"#utility.yul\":12744:12804   */\n      swap2\n      swap1\n      pop\n      jump\t// out\n        /* \"#utility.yul\":12810:12950   */\n    tag_163:\n      0x00\n        /* \"#utility.yul\":12937:12942   */\n      dup2\n        /* \"#utility.yul\":12931:12943   */\n      mload\n        /* \"#utility.yul\":12921:12943   */\n      swap1\n      pop\n        /* \"#utility.yul\":12910:12950   */\n      swap2\n      swap1\n      pop\n      jump\t// out\n        /* \"#utility.yul\":12956:13055   */\n    tag_181:\n      0x00\n        /* \"#utility.yul\":13042:13047   */\n      dup2\n        /* \"#utility.yul\":13036:13048   */\n      mload\n        /* \"#utility.yul\":13026:13048   */\n      swap1\n      pop\n        /* \"#utility.yul\":13015:13055   */\n      swap2\n      swap1\n      pop\n      jump\t// out\n        /* \"#utility.yul\":13061:13200   */\n    tag_173:\n      0x00\n        /* \"#utility.yul\":13189:13193   */\n      0x20\n        /* \"#utility.yul\":13184:13187   */\n      dup3\n        /* \"#utility.yul\":13180:13194   */\n      add\n        /* \"#utility.yul\":13172:13194   */\n      swap1\n      pop\n        /* \"#utility.yul\":13162:13200   */\n      swap2\n      swap1\n      pop\n      jump\t// out\n        /* \"#utility.yul\":13206:13416   */\n    tag_165:\n      0x00\n        /* \"#utility.yul\":13365:13371   */\n      dup3\n        /* \"#utility.yul\":13360:13363   */\n      dup3\n        /* \"#utility.yul\":13353:13372   */\n      mstore\n        /* \"#utility.yul\":13405:13409   */\n      0x20\n        /* \"#utility.yul\":13400:13403   */\n      dup3\n        /* \"#utility.yul\":13396:13410   */\n      add\n        /* \"#utility.yul\":13381:13410   */\n      swap1\n      pop\n        /* \"#utility.yul\":13343:13416   */\n      swap3\n      swap2\n      pop\n      pop\n      jump\t// out\n        /* \"#utility.yul\":13422:13581   */\n    tag_183:\n      0x00\n        /* \"#utility.yul\":13530:13536   */\n      dup3\n        /* \"#utility.yul\":13525:13528   */\n      dup3\n        /* \"#utility.yul\":13518:13537   */\n      mstore\n        /* \"#utility.yul\":13570:13574   */\n      0x20\n        /* \"#utility.yul\":13565:13568   */\n      dup3\n        /* \"#utility.yul\":13561:13575   */\n      add\n        /* \"#utility.yul\":13546:13575   */\n      swap1\n      pop\n        /* \"#utility.yul\":13508:13581   */\n      swap3\n      swap2\n      pop\n      pop\n      jump\t// out\n        /* \"#utility.yul\":13587:13756   */\n    tag_192:\n      0x00\n        /* \"#utility.yul\":13705:13711   */\n      dup3\n        /* \"#utility.yul\":13700:13703   */\n      dup3\n        /* \"#utility.yul\":13693:13712   */\n      mstore\n        /* \"#utility.yul\":13745:13749   */\n      0x20\n        /* \"#utility.yul\":13740:13743   */\n      dup3\n        /* \"#utility.yul\":13736:13750   */\n      add\n        /* \"#utility.yul\":13721:13750   */\n      swap1\n      pop\n        /* \"#utility.yul\":13683:13756   */\n      swap3\n      swap2\n      pop\n      pop\n      jump\t// out\n        /* \"#utility.yul\":13762:13858   */\n    tag_156:\n      0x00\n        /* \"#utility.yul\":13828:13852   */\n      tag_260\n        /* \"#utility.yul\":13846:13851   */\n      dup3\n        /* \"#utility.yul\":13828:13852   */\n      tag_261\n      jump\t// in\n    tag_260:\n        /* \"#utility.yul\":13817:13852   */\n      swap1\n      pop\n        /* \"#utility.yul\":13807:13858   */\n      swap2\n      swap1\n      pop\n      jump\t// out\n        /* \"#utility.yul\":13864:13954   */\n    tag_177:\n      0x00\n        /* \"#utility.yul\":13941:13946   */\n      dup2\n        /* \"#utility.yul\":13934:13947   */\n      iszero\n        /* \"#utility.yul\":13927:13948   */\n      iszero\n        /* \"#utility.yul\":13916:13948   */\n      swap1\n      pop\n        /* \"#utility.yul\":13906:13954   */\n      swap2\n      swap1\n      pop\n      jump\t// out\n        /* \"#utility.yul\":13960:14086   */\n    tag_261:\n      0x00\n        /* \"#utility.yul\":14037:14079   */\n      0xffffffffffffffffffffffffffffffffffffffff\n        /* \"#utility.yul\":14030:14035   */\n      dup3\n        /* \"#utility.yul\":14026:14080   */\n      and\n        /* \"#utility.yul\":14015:14080   */\n      swap1\n      pop\n        /* \"#utility.yul\":14005:14086   */\n      swap2\n      swap1\n      pop\n      jump\t// out\n        /* \"#utility.yul\":14092:14169   */\n    tag_220:\n      0x00\n        /* \"#utility.yul\":14158:14163   */\n      dup2\n        /* \"#utility.yul\":14147:14163   */\n      swap1\n      pop\n        /* \"#utility.yul\":14137:14169   */\n      swap2\n      swap1\n      pop\n      jump\t// out\n        /* \"#utility.yul\":14175:14329   */\n    tag_124:\n        /* \"#utility.yul\":14259:14265   */\n      dup3\n        /* \"#utility.yul\":14254:14257   */\n      dup2\n        /* \"#utility.yul\":14249:14252   */\n      dup4\n        /* \"#utility.yul\":14236:14266   */\n      calldatacopy\n        /* \"#utility.yul\":14321:14322   */\n      0x00\n        /* \"#utility.yul\":14312:14318   */\n      dup4\n        /* \"#utility.yul\":14307:14310   */\n      dup4\n        /* \"#utility.yul\":14303:14319   */\n      add\n        /* \"#utility.yul\":14296:14323   */\n      mstore\n        /* \"#utility.yul\":14226:14329   */\n      pop\n      pop\n      pop\n      jump\t// out\n        /* \"#utility.yul\":14335:14642   */\n    tag_185:\n        /* \"#utility.yul\":14403:14404   */\n      0x00\n        /* \"#utility.yul\":14413:14526   */\n    tag_267:\n        /* \"#utility.yul\":14427:14433   */\n      dup4\n        /* \"#utility.yul\":14424:14425   */\n      dup2\n        /* \"#utility.yul\":14421:14434   */\n      lt\n        /* \"#utility.yul\":14413:14526   */\n      iszero\n      tag_269\n      jumpi\n        /* \"#utility.yul\":14512:14513   */\n      dup1\n        /* \"#utility.yul\":14507:14510   */\n      dup3\n        /* \"#utility.yul\":14503:14514   */\n      add\n        /* \"#utility.yul\":14497:14515   */\n      mload\n        /* \"#utility.yul\":14493:14494   */\n      dup2\n        /* \"#utility.yul\":14488:14491   */\n      dup5\n        /* \"#utility.yul\":14484:14495   */\n      add\n        /* \"#utility.yul\":14477:14516   */\n      mstore\n        /* \"#utility.yul\":14449:14451   */\n      0x20\n        /* \"#utility.yul\":14446:14447   */\n      dup2\n        /* \"#utility.yul\":14442:14452   */\n      add\n        /* \"#utility.yul\":14437:14452   */\n      swap1\n      pop\n        /* \"#utility.yul\":14413:14526   */\n      jump(tag_267)\n    tag_269:\n        /* \"#utility.yul\":14544:14550   */\n      dup4\n        /* \"#utility.yul\":14541:14542   */\n      dup2\n        /* \"#utility.yul\":14538:14551   */\n      gt\n        /* \"#utility.yul\":14535:14537   */\n      iszero\n      tag_270\n      jumpi\n        /* \"#utility.yul\":14624:14625   */\n      0x00\n        /* \"#utility.yul\":14615:14621   */\n      dup5\n        /* \"#utility.yul\":14610:14613   */\n      dup5\n        /* \"#utility.yul\":14606:14622   */\n      add\n        /* \"#utility.yul\":14599:14626   */\n      mstore\n        /* \"#utility.yul\":14535:14537   */\n    tag_270:\n        /* \"#utility.yul\":14384:14642   */\n      pop\n      pop\n      pop\n      pop\n      jump\t// out\n        /* \"#utility.yul\":14648:14819   */\n    tag_92:\n      0x00\n        /* \"#utility.yul\":14710:14734   */\n      tag_272\n        /* \"#utility.yul\":14728:14733   */\n      dup3\n        /* \"#utility.yul\":14710:14734   */\n      tag_220\n      jump\t// in\n    tag_272:\n        /* \"#utility.yul\":14701:14734   */\n      swap2\n      pop\n        /* \"#utility.yul\":14756:14760   */\n      0x00\n        /* \"#utility.yul\":14749:14754   */\n      dup3\n        /* \"#utility.yul\":14746:14761   */\n      eq\n        /* \"#utility.yul\":14743:14745   */\n      iszero\n      tag_273\n      jumpi\n        /* \"#utility.yul\":14764:14782   */\n      tag_274\n      tag_275\n      jump\t// in\n    tag_274:\n        /* \"#utility.yul\":14743:14745   */\n    tag_273:\n        /* \"#utility.yul\":14811:14812   */\n      0x01\n        /* \"#utility.yul\":14804:14809   */\n      dup3\n        /* \"#utility.yul\":14800:14813   */\n      sub\n        /* \"#utility.yul\":14793:14813   */\n      swap1\n      pop\n        /* \"#utility.yul\":14691:14819   */\n      swap2\n      swap1\n      pop\n      jump\t// out\n        /* \"#utility.yul\":14825:15145   */\n    tag_60:\n      0x00\n        /* \"#utility.yul\":14906:14907   */\n      0x02\n        /* \"#utility.yul\":14900:14904   */\n      dup3\n        /* \"#utility.yul\":14896:14908   */\n      div\n        /* \"#utility.yul\":14886:14908   */\n      swap1\n      pop\n        /* \"#utility.yul\":14953:14954   */\n      0x01\n        /* \"#utility.yul\":14947:14951   */\n      dup3\n        /* \"#utility.yul\":14943:14955   */\n      and\n        /* \"#utility.yul\":14974:14992   */\n      dup1\n        /* \"#utility.yul\":14964:14966   */\n      tag_277\n      jumpi\n        /* \"#utility.yul\":15030:15034   */\n      0x7f\n        /* \"#utility.yul\":15022:15028   */\n      dup3\n        /* \"#utility.yul\":15018:15035   */\n      and\n        /* \"#utility.yul\":15008:15035   */\n      swap2\n      pop\n        /* \"#utility.yul\":14964:14966   */\n    tag_277:\n        /* \"#utility.yul\":15092:15094   */\n      0x20\n        /* \"#utility.yul\":15084:15090   */\n      dup3\n        /* \"#utility.yul\":15081:15095   */\n      lt\n        /* \"#utility.yul\":15061:15079   */\n      dup2\n        /* \"#utility.yul\":15058:15096   */\n      eq\n        /* \"#utility.yul\":15055:15057   */\n      iszero\n      tag_278\n      jumpi\n        /* \"#utility.yul\":15111:15129   */\n      tag_279\n      tag_280\n      jump\t// in\n    tag_279:\n        /* \"#utility.yul\":15055:15057   */\n    tag_278:\n        /* \"#utility.yul\":14876:15145   */\n      pop\n      swap2\n      swap1\n      pop\n      jump\t// out\n        /* \"#utility.yul\":15151:15331   */\n    tag_275:\n        /* \"#utility.yul\":15199:15276   */\n      0x4e487b7100000000000000000000000000000000000000000000000000000000\n        /* \"#utility.yul\":15196:15197   */\n      0x00\n        /* \"#utility.yul\":15189:15277   */\n      mstore\n        /* \"#utility.yul\":15296:15300   */\n      0x11\n        /* \"#utility.yul\":15293:15294   */\n      0x04\n        /* \"#utility.yul\":15286:15301   */\n      mstore\n        /* \"#utility.yul\":15320:15324   */\n      0x24\n        /* \"#utility.yul\":15317:15318   */\n      0x00\n        /* \"#utility.yul\":15310:15325   */\n      revert\n        /* \"#utility.yul\":15337:15517   */\n    tag_280:\n        /* \"#utility.yul\":15385:15462   */\n      0x4e487b7100000000000000000000000000000000000000000000000000000000\n        /* \"#utility.yul\":15382:15383   */\n      0x00\n        /* \"#utility.yul\":15375:15463   */\n      mstore\n        /* \"#utility.yul\":15482:15486   */\n      0x22\n        /* \"#utility.yul\":15479:15480   */\n      0x04\n        /* \"#utility.yul\":15472:15487   */\n      mstore\n        /* \"#utility.yul\":15506:15510   */\n      0x24\n        /* \"#utility.yul\":15503:15504   */\n      0x00\n        /* \"#utility.yul\":15496:15511   */\n      revert\n        /* \"#utility.yul\":15523:15703   */\n    tag_248:\n        /* \"#utility.yul\":15571:15648   */\n      0x4e487b7100000000000000000000000000000000000000000000000000000000\n        /* \"#utility.yul\":15568:15569   */\n      0x00\n        /* \"#utility.yul\":15561:15649   */\n      mstore\n        /* \"#utility.yul\":15668:15672   */\n      0x41\n        /* \"#utility.yul\":15665:15666   */\n      0x04\n        /* \"#utility.yul\":15658:15673   */\n      mstore\n        /* \"#utility.yul\":15692:15696   */\n      0x24\n        /* \"#utility.yul\":15689:15690   */\n      0x00\n        /* \"#utility.yul\":15682:15697   */\n      revert\n        /* \"#utility.yul\":15709:15811   */\n    tag_187:\n      0x00\n        /* \"#utility.yul\":15801:15803   */\n      0x1f\n        /* \"#utility.yul\":15797:15804   */\n      not\n        /* \"#utility.yul\":15792:15794   */\n      0x1f\n        /* \"#utility.yul\":15785:15790   */\n      dup4\n        /* \"#utility.yul\":15781:15795   */\n      add\n        /* \"#utility.yul\":15777:15805   */\n      and\n        /* \"#utility.yul\":15767:15805   */\n      swap1\n      pop\n        /* \"#utility.yul\":15757:15811   */\n      swap2\n      swap1\n      pop\n      jump\t// out\n        /* \"#utility.yul\":15817:15939   */\n    tag_128:\n        /* \"#utility.yul\":15890:15914   */\n      tag_286\n        /* \"#utility.yul\":15908:15913   */\n      dup2\n        /* \"#utility.yul\":15890:15914   */\n      tag_156\n      jump\t// in\n    tag_286:\n        /* \"#utility.yul\":15883:15888   */\n      dup2\n        /* \"#utility.yul\":15880:15915   */\n      eq\n        /* \"#utility.yul\":15870:15872   */\n      tag_287\n      jumpi\n        /* \"#utility.yul\":15929:15930   */\n      0x00\n        /* \"#utility.yul\":15926:15927   */\n      dup1\n        /* \"#utility.yul\":15919:15931   */\n      revert\n        /* \"#utility.yul\":15870:15872   */\n    tag_287:\n        /* \"#utility.yul\":15860:15939   */\n      pop\n      jump\t// out\n        /* \"#utility.yul\":15945:16067   */\n    tag_136:\n        /* \"#utility.yul\":16018:16042   */\n      tag_289\n        /* \"#utility.yul\":16036:16041   */\n      dup2\n        /* \"#utility.yul\":16018:16042   */\n      tag_220\n      jump\t// in\n    tag_289:\n        /* \"#utility.yul\":16011:16016   */\n      dup2\n        /* \"#utility.yul\":16008:16043   */\n      eq\n        /* \"#utility.yul\":15998:16000   */\n      tag_290\n      jumpi\n        /* \"#utility.yul\":16057:16058   */\n      0x00\n        /* \"#utility.yul\":16054:16055   */\n      dup1\n        /* \"#utility.yul\":16047:16059   */\n      revert\n        /* \"#utility.yul\":15998:16000   */\n    tag_290:\n        /* \"#utility.yul\":15988:16067   */\n      pop\n      jump\t// out\n\n    auxdata: 0xa2646970667358221220b51a8a234b6ebe2e4aa8b564fcad296b785a0b17673282455390877edce94e8264736f6c63430008000033\n}\n",
				"bytecode": {
					"linkReferences": {},
					"object": "6080604052601960025534801561001557600080fd5b5060405161130938038061130983398181016040528101906100379190610099565b336000806101000a81548173ffffffffffffffffffffffffffffffffffffffff021916908373ffffffffffffffffffffffffffffffffffffffff16021790555080600181905550506100e3565b600081519050610093816100cc565b92915050565b6000602082840312156100ab57600080fd5b60006100b984828501610084565b91505092915050565b6000819050919050565b6100d5816100c2565b81146100e057600080fd5b50565b611217806100f26000396000f3fe608060405234801561001057600080fd5b50600436106100935760003560e01c8063848a991a11610066578063848a991a146101205780638da5cb5b1461013e5780638de0acc31461015c578063ad73349e14610178578063e9e48880146101aa57610093565b8063195199f61461009857806329dcb0cf146100b4578063388044b3146100d257806362bd983a14610102575b600080fd5b6100b260048036038101906100ad9190610ab9565b6101c8565b005b6100bc610260565b6040516100c99190610f4d565b60405180910390f35b6100ec60048036038101906100e79190610a24565b610266565b6040516100f99190610e2d565b60405180910390f35b61010a610286565b6040516101179190610e0b565b60405180910390f35b61012861045f565b6040516101359190610f4d565b60405180910390f35b610146610465565b6040516101539190610df0565b60405180910390f35b61017660048036038101906101719190610a4d565b610489565b005b610192600480360381019061018d9190610ab9565b61077f565b6040516101a193929190610e48565b60405180910390f35b6101b26108e9565b6040516101bf9190610f4d565b60405180910390f35b60008054906101000a900473ffffffffffffffffffffffffffffffffffffffff1673ffffffffffffffffffffffffffffffffffffffff163373ffffffffffffffffffffffffffffffffffffffff1614610256576040517f08c379a000000000000000000000000000000000000000000000000000000000815260040161024d90610f2d565b60405180910390fd5b8060018190555050565b60015481565b60046020528060005260406000206000915054906101000a900460ff1681565b60606003805480602002602001604051908101604052809291908181526020016000905b8282101561045657838290600052602060002090600302016040518060600160405290816000820180546102dd906110e3565b80601f0160208091040260200160405190810160405280929190818152602001828054610309906110e3565b80156103565780601f1061032b57610100808354040283529160200191610356565b820191906000526020600020905b81548152906001019060200180831161033957829003601f168201915b5050505050815260200160018201805461036f906110e3565b80601f016020809104026020016040519081016040528092919081815260200182805461039b906110e3565b80156103e85780601f106103bd576101008083540402835291602001916103e8565b820191906000526020600020905b8154815290600101906020018083116103cb57829003601f168201915b505050505081526020016002820160009054906101000a900473ffffffffffffffffffffffffffffffffffffffff1673ffffffffffffffffffffffffffffffffffffffff1673ffffffffffffffffffffffffffffffffffffffff1681525050815260200190600101906102aa565b50505050905090565b60025481565b60008054906101000a900473ffffffffffffffffffffffffffffffffffffffff1681565b818160008251116104cf576040517f08c379a00000000000000000000000000000000000000000000000000000000081526004016104c690610e8d565b60405180910390fd5b6000815111610513576040517f08c379a000000000000000000000000000000000000000000000000000000000815260040161050a90610f0d565b60405180910390fd5b600154421115610558576040517f08c379a000000000000000000000000000000000000000000000000000000000815260040161054f90610ecd565b60405180910390fd5b60006002541161059d576040517f08c379a000000000000000000000000000000000000000000000000000000000815260040161059490610eed565b60405180910390fd5b600460003373ffffffffffffffffffffffffffffffffffffffff1673ffffffffffffffffffffffffffffffffffffffff16815260200190815260200160002060009054906101000a900460ff161561062a576040517f08c379a000000000000000000000000000000000000000000000000000000000815260040161062190610ead565b60405180910390fd5b600360405180606001604052808681526020018581526020013373ffffffffffffffffffffffffffffffffffffffff16815250908060018154018082558091505060019003906000526020600020906003020160009091909190915060008201518160000190805190602001906106a29291906108ef565b5060208201518160010190805190602001906106bf9291906108ef565b5060408201518160020160006101000a81548173ffffffffffffffffffffffffffffffffffffffff021916908373ffffffffffffffffffffffffffffffffffffffff16021790555050506001600460003373ffffffffffffffffffffffffffffffffffffffff1673ffffffffffffffffffffffffffffffffffffffff16815260200190815260200160002060006101000a81548160ff02191690831515021790555060026000815480929190610774906110b9565b919050555050505050565b6003818154811061078f57600080fd5b90600052602060002090600302016000915090508060000180546107b2906110e3565b80601f01602080910402602001604051908101604052809291908181526020018280546107de906110e3565b801561082b5780601f106108005761010080835404028352916020019161082b565b820191906000526020600020905b81548152906001019060200180831161080e57829003601f168201915b505050505090806001018054610840906110e3565b80601f016020809104026020016040519081016040528092919081815260200182805461086c906110e3565b80156108b95780601f1061088e576101008083540402835291602001916108b9565b820191906000526020600020905b81548152906001019060200180831161089c57829003601f168201915b5050505050908060020160009054906101000a900473ffffffffffffffffffffffffffffffffffffffff16905083565b61c35081565b8280546108fb906110e3565b90600052602060002090601f01602090048101928261091d5760008555610964565b82601f1061093657805160ff1916838001178555610964565b82800160010185558215610964579182015b82811115610963578251825591602001919060010190610948565b5b5090506109719190610975565b5090565b5b8082111561098e576000816000905550600101610976565b5090565b60006109a56109a084610f99565b610f68565b9050828152602081018484840111156109bd57600080fd5b6109c8848285611077565b509392505050565b6000813590506109df816111b3565b92915050565b600082601f8301126109f657600080fd5b8135610a06848260208601610992565b91505092915050565b600081359050610a1e816111ca565b92915050565b600060208284031215610a3657600080fd5b6000610a44848285016109d0565b91505092915050565b60008060408385031215610a6057600080fd5b600083013567ffffffffffffffff811115610a7a57600080fd5b610a86858286016109e5565b925050602083013567ffffffffffffffff811115610aa357600080fd5b610aaf858286016109e5565b9150509250929050565b600060208284031215610acb57600080fd5b6000610ad984828501610a0f565b91505092915050565b6000610aee8383610d8a565b905092915050565b610aff8161102f565b82525050565b610b0e8161102f565b82525050565b6000610b1f82610fd9565b610b298185610ffc565b935083602082028501610b3b85610fc9565b8060005b85811015610b775784840389528151610b588582610ae2565b9450610b6383610fef565b925060208a01995050600181019050610b3f565b50829750879550505050505092915050565b610b9281611041565b82525050565b6000610ba382610fe4565b610bad818561100d565b9350610bbd818560208601611086565b610bc6816111a2565b840191505092915050565b6000610bdc82610fe4565b610be6818561101e565b9350610bf6818560208601611086565b610bff816111a2565b840191505092915050565b6000610c17601a8361101e565b91507f4769744875622055524c2063616e6e6f7420626520656d7074790000000000006000830152602082019050919050565b6000610c5760118361101e565b91507f416c7265616479207375626d69747465640000000000000000000000000000006000830152602082019050919050565b6000610c97600f8361101e565b91507f446561646c696e652070617373656400000000000000000000000000000000006000830152602082019050919050565b6000610cd760138361101e565b91507f4e6f207375626d697373696f6e73206c656674000000000000000000000000006000830152602082019050919050565b6000610d17601b8361101e565b91507f54656c656772616d2049442063616e6e6f7420626520656d70747900000000006000830152602082019050919050565b6000610d5760188361101e565b91507f4f6e6c79206f776e65722063616e2063616c6c207468697300000000000000006000830152602082019050919050565b60006060830160008301518482036000860152610da78282610b98565b91505060208301518482036020860152610dc18282610b98565b9150506040830151610dd66040860182610af6565b508091505092915050565b610dea8161106d565b82525050565b6000602082019050610e056000830184610b05565b92915050565b60006020820190508181036000830152610e258184610b14565b905092915050565b6000602082019050610e426000830184610b89565b92915050565b60006060820190508181036000830152610e628186610bd1565b90508181036020830152610e768185610bd1565b9050610e856040830184610b05565b949350505050565b60006020820190508181036000830152610ea681610c0a565b9050919050565b60006020820190508181036000830152610ec681610c4a565b9050919050565b60006020820190508181036000830152610ee681610c8a565b9050919050565b60006020820190508181036000830152610f0681610cca565b9050919050565b60006020820190508181036000830152610f2681610d0a565b9050919050565b60006020820190508181036000830152610f4681610d4a565b9050919050565b6000602082019050610f626000830184610de1565b92915050565b6000604051905081810181811067ffffffffffffffff82111715610f8f57610f8e611173565b5b8060405250919050565b600067ffffffffffffffff821115610fb457610fb3611173565b5b601f19601f8301169050602081019050919050565b6000819050602082019050919050565b600081519050919050565b600081519050919050565b6000602082019050919050565b600082825260208201905092915050565b600082825260208201905092915050565b600082825260208201905092915050565b600061103a8261104d565b9050919050565b60008115159050919050565b600073ffffffffffffffffffffffffffffffffffffffff82169050919050565b6000819050919050565b82818337600083830152505050565b60005b838110156110a4578082015181840152602081019050611089565b838111156110b3576000848401525b50505050565b60006110c48261106d565b915060008214156110d8576110d7611115565b5b600182039050919050565b600060028204905060018216806110fb57607f821691505b6020821081141561110f5761110e611144565b5b50919050565b7f4e487b7100000000000000000000000000000000000000000000000000000000600052601160045260246000fd5b7f4e487b7100000000000000000000000000000000000000000000000000000000600052602260045260246000fd5b7f4e487b7100000000000000000000000000000000000000000000000000000000600052604160045260246000fd5b6000601f19601f8301169050919050565b6111bc8161102f565b81146111c757600080fd5b50565b6111d38161106d565b81146111de57600080fd5b5056fea2646970667358221220b51a8a234b6ebe2e4aa8b564fcad296b785a0b17673282455390877edce94e8264736f6c63430008000033",
					"opcodes": "PUSH1 0x80 PUSH1 0x40 MSTORE PUSH1 0x19 PUSH1 0x2 SSTORE CALLVALUE DUP1 ISZERO PUSH2 0x15 JUMPI PUSH1 0x0 DUP1 REVERT JUMPDEST POP PUSH1 0x40 MLOAD PUSH2 0x1309 CODESIZE SUB DUP1 PUSH2 0x1309 DUP4 CODECOPY DUP2 DUP2 ADD PUSH1 0x40 MSTORE DUP2 ADD SWAP1 PUSH2 0x37 SWAP2 SWAP1 PUSH2 0x99 JUMP JUMPDEST CALLER PUSH1 0x0 DUP1 PUSH2 0x100 EXP DUP2 SLOAD DUP2 PUSH20 0xFFFFFFFFFFFFFFFFFFFFFFFFFFFFFFFFFFFFFFFF MUL NOT AND SWAP1 DUP4 PUSH20 0xFFFFFFFFFFFFFFFFFFFFFFFFFFFFFFFFFFFFFFFF AND MUL OR SWAP1 SSTORE POP DUP1 PUSH1 0x1 DUP2 SWAP1 SSTORE POP POP PUSH2 0xE3 JUMP JUMPDEST PUSH1 0x0 DUP2 MLOAD SWAP1 POP PUSH2 0x93 DUP2 PUSH2 0xCC JUMP JUMPDEST SWAP3 SWAP2 POP POP JUMP JUMPDEST PUSH1 0x0 PUSH1 0x20 DUP3 DUP5 SUB SLT ISZERO PUSH2 0xAB JUMPI PUSH1 0x0 DUP1 REVERT JUMPDEST PUSH1 0x0 PUSH2 0xB9 DUP5 DUP3 DUP6 ADD PUSH2 0x84 JUMP JUMPDEST SWAP2 POP POP SWAP3 SWAP2 POP POP JUMP JUMPDEST PUSH1 0x0 DUP2 SWAP1 POP SWAP2 SWAP1 POP JUMP JUMPDEST PUSH2 0xD5 DUP2 PUSH2 0xC2 JUMP JUMPDEST DUP2 EQ PUSH2 0xE0 JUMPI PUSH1 0x0 DUP1 REVERT JUMPDEST POP JUMP JUMPDEST PUSH2 0x1217 DUP1 PUSH2 0xF2 PUSH1 0x0 CODECOPY PUSH1 0x0 RETURN INVALID PUSH1 0x80 PUSH1 0x40 MSTORE CALLVALUE DUP1 ISZERO PUSH2 0x10 JUMPI PUSH1 0x0 DUP1 REVERT JUMPDEST POP PUSH1 0x4 CALLDATASIZE LT PUSH2 0x93 JUMPI PUSH1 0x0 CALLDATALOAD PUSH1 0xE0 SHR DUP1 PUSH4 0x848A991A GT PUSH2 0x66 JUMPI DUP1 PUSH4 0x848A991A EQ PUSH2 0x120 JUMPI DUP1 PUSH4 0x8DA5CB5B EQ PUSH2 0x13E JUMPI DUP1 PUSH4 0x8DE0ACC3 EQ PUSH2 0x15C JUMPI DUP1 PUSH4 0xAD73349E EQ PUSH2 0x178 JUMPI DUP1 PUSH4 0xE9E48880 EQ PUSH2 0x1AA JUMPI PUSH2 0x93 JUMP JUMPDEST DUP1 PUSH4 0x195199F6 EQ PUSH2 0x98 JUMPI DUP1 PUSH4 0x29DCB0CF EQ PUSH2 0xB4 JUMPI DUP1 PUSH4 0x388044B3 EQ PUSH2 0xD2 JUMPI DUP1 PUSH4 0x62BD983A EQ PUSH2 0x102 JUMPI JUMPDEST PUSH1 0x0 DUP1 REVERT JUMPDEST PUSH2 0xB2 PUSH1 0x4 DUP1 CALLDATASIZE SUB DUP2 ADD SWAP1 PUSH2 0xAD SWAP2 SWAP1 PUSH2 0xAB9 JUMP JUMPDEST PUSH2 0x1C8 JUMP JUMPDEST STOP JUMPDEST PUSH2 0xBC PUSH2 0x260 JUMP JUMPDEST PUSH1 0x40 MLOAD PUSH2 0xC9 SWAP2 SWAP1 PUSH2 0xF4D JUMP JUMPDEST PUSH1 0x40 MLOAD DUP1 SWAP2 SUB SWAP1 RETURN JUMPDEST PUSH2 0xEC PUSH1 0x4 DUP1 CALLDATASIZE SUB DUP2 ADD SWAP1 PUSH2 0xE7 SWAP2 SWAP1 PUSH2 0xA24 JUMP JUMPDEST PUSH2 0x266 JUMP JUMPDEST PUSH1 0x40 MLOAD PUSH2 0xF9 SWAP2 SWAP1 PUSH2 0xE2D JUMP JUMPDEST PUSH1 0x40 MLOAD DUP1 SWAP2 SUB SWAP1 RETURN JUMPDEST PUSH2 0x10A PUSH2 0x286 JUMP JUMPDEST PUSH1 0x40 MLOAD PUSH2 0x117 SWAP2 SWAP1 PUSH2 0xE0B JUMP JUMPDEST PUSH1 0x40 MLOAD DUP1 SWAP2 SUB SWAP1 RETURN JUMPDEST PUSH2 0x128 PUSH2 0x45F JUMP JUMPDEST PUSH1 0x40 MLOAD PUSH2 0x135 SWAP2 SWAP1 PUSH2 0xF4D JUMP JUMPDEST PUSH1 0x40 MLOAD DUP1 SWAP2 SUB SWAP1 RETURN JUMPDEST PUSH2 0x146 PUSH2 0x465 JUMP JUMPDEST PUSH1 0x40 MLOAD PUSH2 0x153 SWAP2 SWAP1 PUSH2 0xDF0 JUMP JUMPDEST PUSH1 0x40 MLOAD DUP1 SWAP2 SUB SWAP1 RETURN JUMPDEST PUSH2 0x176 PUSH1 0x4 DUP1 CALLDATASIZE SUB DUP2 ADD SWAP1 PUSH2 0x171 SWAP2 SWAP1 PUSH2 0xA4D JUMP JUMPDEST PUSH2 0x489 JUMP JUMPDEST STOP JUMPDEST PUSH2 0x192 PUSH1 0x4 DUP1 CALLDATASIZE SUB DUP2 ADD SWAP1 PUSH2 0x18D SWAP2 SWAP1 PUSH2 0xAB9 JUMP JUMPDEST PUSH2 0x77F JUMP JUMPDEST PUSH1 0x40 MLOAD PUSH2 0x1A1 SWAP4 SWAP3 SWAP2 SWAP1 PUSH2 0xE48 JUMP JUMPDEST PUSH1 0x40 MLOAD DUP1 SWAP2 SUB SWAP1 RETURN JUMPDEST PUSH2 0x1B2 PUSH2 0x8E9 JUMP JUMPDEST PUSH1 0x40 MLOAD PUSH2 0x1BF SWAP2 SWAP1 PUSH2 0xF4D JUMP JUMPDEST PUSH1 0x40 MLOAD DUP1 SWAP2 SUB SWAP1 RETURN JUMPDEST PUSH1 0x0 DUP1 SLOAD SWAP1 PUSH2 0x100 EXP SWAP1 DIV PUSH20 0xFFFFFFFFFFFFFFFFFFFFFFFFFFFFFFFFFFFFFFFF AND PUSH20 0xFFFFFFFFFFFFFFFFFFFFFFFFFFFFFFFFFFFFFFFF AND CALLER PUSH20 0xFFFFFFFFFFFFFFFFFFFFFFFFFFFFFFFFFFFFFFFF AND EQ PUSH2 0x256 JUMPI PUSH1 0x40 MLOAD PUSH32 0x8C379A000000000000000000000000000000000000000000000000000000000 DUP2 MSTORE PUSH1 0x4 ADD PUSH2 0x24D SWAP1 PUSH2 0xF2D JUMP JUMPDEST PUSH1 0x40 MLOAD DUP1 SWAP2 SUB SWAP1 REVERT JUMPDEST DUP1 PUSH1 0x1 DUP2 SWAP1 SSTORE POP POP JUMP JUMPDEST PUSH1 0x1 SLOAD DUP2 JUMP JUMPDEST PUSH1 0x4 PUSH1 0x20 MSTORE DUP1 PUSH1 0x0 MSTORE PUSH1 0x40 PUSH1 0x0 KECCAK256 PUSH1 0x0 SWAP2 POP SLOAD SWAP1 PUSH2 0x100 EXP SWAP1 DIV PUSH1 0xFF AND DUP2 JUMP JUMPDEST PUSH1 0x60 PUSH1 0x3 DUP1 SLOAD DUP1 PUSH1 0x20 MUL PUSH1 0x20 ADD PUSH1 0x40 MLOAD SWAP1 DUP2 ADD PUSH1 0x40 MSTORE DUP1 SWAP3 SWAP2 SWAP1 DUP2 DUP2 MSTORE PUSH1 0x20 ADD PUSH1 0x0 SWAP1 JUMPDEST DUP3 DUP3 LT ISZERO PUSH2 0x456 JUMPI DUP4 DUP3 SWAP1 PUSH1 0x0 MSTORE PUSH1 0x20 PUSH1 0x0 KECCAK256 SWAP1 PUSH1 0x3 MUL ADD PUSH1 0x40 MLOAD DUP1 PUSH1 0x60 ADD PUSH1 0x40 MSTORE SWAP1 DUP2 PUSH1 0x0 DUP3 ADD DUP1 SLOAD PUSH2 0x2DD SWAP1 PUSH2 0x10E3 JUMP JUMPDEST DUP1 PUSH1 0x1F ADD PUSH1 0x20 DUP1 SWAP2 DIV MUL PUSH1 0x20 ADD PUSH1 0x40 MLOAD SWAP1 DUP2 ADD PUSH1 0x40 MSTORE DUP1 SWAP3 SWAP2 SWAP1 DUP2 DUP2 MSTORE PUSH1 0x20 ADD DUP3 DUP1 SLOAD PUSH2 0x309 SWAP1 PUSH2 0x10E3 JUMP JUMPDEST DUP1 ISZERO PUSH2 0x356 JUMPI DUP1 PUSH1 0x1F LT PUSH2 0x32B JUMPI PUSH2 0x100 DUP1 DUP4 SLOAD DIV MUL DUP4 MSTORE SWAP2 PUSH1 0x20 ADD SWAP2 PUSH2 0x356 JUMP JUMPDEST DUP3 ADD SWAP2 SWAP1 PUSH1 0x0 MSTORE PUSH1 0x20 PUSH1 0x0 KECCAK256 SWAP1 JUMPDEST DUP2 SLOAD DUP2 MSTORE SWAP1 PUSH1 0x1 ADD SWAP1 PUSH1 0x20 ADD DUP1 DUP4 GT PUSH2 0x339 JUMPI DUP3 SWAP1 SUB PUSH1 0x1F AND DUP3 ADD SWAP2 JUMPDEST POP POP POP POP POP DUP2 MSTORE PUSH1 0x20 ADD PUSH1 0x1 DUP3 ADD DUP1 SLOAD PUSH2 0x36F SWAP1 PUSH2 0x10E3 JUMP JUMPDEST DUP1 PUSH1 0x1F ADD PUSH1 0x20 DUP1 SWAP2 DIV MUL PUSH1 0x20 ADD PUSH1 0x40 MLOAD SWAP1 DUP2 ADD PUSH1 0x40 MSTORE DUP1 SWAP3 SWAP2 SWAP1 DUP2 DUP2 MSTORE PUSH1 0x20 ADD DUP3 DUP1 SLOAD PUSH2 0x39B SWAP1 PUSH2 0x10E3 JUMP JUMPDEST DUP1 ISZERO PUSH2 0x3E8 JUMPI DUP1 PUSH1 0x1F LT PUSH2 0x3BD JUMPI PUSH2 0x100 DUP1 DUP4 SLOAD DIV MUL DUP4 MSTORE SWAP2 PUSH1 0x20 ADD SWAP2 PUSH2 0x3E8 JUMP JUMPDEST DUP3 ADD SWAP2 SWAP1 PUSH1 0x0 MSTORE PUSH1 0x20 PUSH1 0x0 KECCAK256 SWAP1 JUMPDEST DUP2 SLOAD DUP2 MSTORE SWAP1 PUSH1 0x1 ADD SWAP1 PUSH1 0x20 ADD DUP1 DUP4 GT PUSH2 0x3CB JUMPI DUP3 SWAP1 SUB PUSH1 0x1F AND DUP3 ADD SWAP2 JUMPDEST POP POP POP POP POP DUP2 MSTORE PUSH1 0x20 ADD PUSH1 0x2 DUP3 ADD PUSH1 0x0 SWAP1 SLOAD SWAP1 PUSH2 0x100 EXP SWAP1 DIV PUSH20 0xFFFFFFFFFFFFFFFFFFFFFFFFFFFFFFFFFFFFFFFF AND PUSH20 0xFFFFFFFFFFFFFFFFFFFFFFFFFFFFFFFFFFFFFFFF AND PUSH20 0xFFFFFFFFFFFFFFFFFFFFFFFFFFFFFFFFFFFFFFFF AND DUP2 MSTORE POP POP DUP2 MSTORE PUSH1 0x20 ADD SWAP1 PUSH1 0x1 ADD SWAP1 PUSH2 0x2AA JUMP JUMPDEST POP POP POP POP SWAP1 POP SWAP1 JUMP JUMPDEST PUSH1 0x2 SLOAD DUP2 JUMP JUMPDEST PUSH1 0x0 DUP1 SLOAD SWAP1 PUSH2 0x100 EXP SWAP1 DIV PUSH20 0xFFFFFFFFFFFFFFFFFFFFFFFFFFFFFFFFFFFFFFFF AND DUP2 JUMP JUMPDEST DUP2 DUP2 PUSH1 0x0 DUP3 MLOAD GT PUSH2 0x4CF JUMPI PUSH1 0x40 MLOAD PUSH32 0x8C379A000000000000000000000000000000000000000000000000000000000 DUP2 MSTORE PUSH1 0x4 ADD PUSH2 0x4C6 SWAP1 PUSH2 0xE8D JUMP JUMPDEST PUSH1 0x40 MLOAD DUP1 SWAP2 SUB SWAP1 REVERT JUMPDEST PUSH1 0x0 DUP2 MLOAD GT PUSH2 0x513 JUMPI PUSH1 0x40 MLOAD PUSH32 0x8C379A000000000000000000000000000000000000000000000000000000000 DUP2 MSTORE PUSH1 0x4 ADD PUSH2 0x50A SWAP1 PUSH2 0xF0D JUMP JUMPDEST PUSH1 0x40 MLOAD DUP1 SWAP2 SUB SWAP1 REVERT JUMPDEST PUSH1 0x1 SLOAD TIMESTAMP GT ISZERO PUSH2 0x558 JUMPI PUSH1 0x40 MLOAD PUSH32 0x8C379A000000000000000000000000000000000000000000000000000000000 DUP2 MSTORE PUSH1 0x4 ADD PUSH2 0x54F SWAP1 PUSH2 0xECD JUMP JUMPDEST PUSH1 0x40 MLOAD DUP1 SWAP2 SUB SWAP1 REVERT JUMPDEST PUSH1 0x0 PUSH1 0x2 SLOAD GT PUSH2 0x59D JUMPI PUSH1 0x40 MLOAD PUSH32 0x8C379A000000000000000000000000000000000000000000000000000000000 DUP2 MSTORE PUSH1 0x4 ADD PUSH2 0x594 SWAP1 PUSH2 0xEED JUMP JUMPDEST PUSH1 0x40 MLOAD DUP1 SWAP2 SUB SWAP1 REVERT JUMPDEST PUSH1 0x4 PUSH1 0x0 CALLER PUSH20 0xFFFFFFFFFFFFFFFFFFFFFFFFFFFFFFFFFFFFFFFF AND PUSH20 0xFFFFFFFFFFFFFFFFFFFFFFFFFFFFFFFFFFFFFFFF AND DUP2 MSTORE PUSH1 0x20 ADD SWAP1 DUP2 MSTORE PUSH1 0x20 ADD PUSH1 0x0 KECCAK256 PUSH1 0x0 SWAP1 SLOAD SWAP1 PUSH2 0x100 EXP SWAP1 DIV PUSH1 0xFF AND ISZERO PUSH2 0x62A JUMPI PUSH1 0x40 MLOAD PUSH32 0x8C379A000000000000000000000000000000000000000000000000000000000 DUP2 MSTORE PUSH1 0x4 ADD PUSH2 0x621 SWAP1 PUSH2 0xEAD JUMP JUMPDEST PUSH1 0x40 MLOAD DUP1 SWAP2 SUB SWAP1 REVERT JUMPDEST PUSH1 0x3 PUSH1 0x40 MLOAD DUP1 PUSH1 0x60 ADD PUSH1 0x40 MSTORE DUP1 DUP7 DUP2 MSTORE PUSH1 0x20 ADD DUP6 DUP2 MSTORE PUSH1 0x20 ADD CALLER PUSH20 0xFFFFFFFFFFFFFFFFFFFFFFFFFFFFFFFFFFFFFFFF AND DUP2 MSTORE POP SWAP1 DUP1 PUSH1 0x1 DUP2 SLOAD ADD DUP1 DUP3 SSTORE DUP1 SWAP2 POP POP PUSH1 0x1 SWAP1 SUB SWAP1 PUSH1 0x0 MSTORE PUSH1 0x20 PUSH1 0x0 KECCAK256 SWAP1 PUSH1 0x3 MUL ADD PUSH1 0x0 SWAP1 SWAP2 SWAP1 SWAP2 SWAP1 SWAP2 POP PUSH1 0x0 DUP3 ADD MLOAD DUP2 PUSH1 0x0 ADD SWAP1 DUP1 MLOAD SWAP1 PUSH1 0x20 ADD SWAP1 PUSH2 0x6A2 SWAP3 SWAP2 SWAP1 PUSH2 0x8EF JUMP JUMPDEST POP PUSH1 0x20 DUP3 ADD MLOAD DUP2 PUSH1 0x1 ADD SWAP1 DUP1 MLOAD SWAP1 PUSH1 0x20 ADD SWAP1 PUSH2 0x6BF SWAP3 SWAP2 SWAP1 PUSH2 0x8EF JUMP JUMPDEST POP PUSH1 0x40 DUP3 ADD MLOAD DUP2 PUSH1 0x2 ADD PUSH1 0x0 PUSH2 0x100 EXP DUP2 SLOAD DUP2 PUSH20 0xFFFFFFFFFFFFFFFFFFFFFFFFFFFFFFFFFFFFFFFF MUL NOT AND SWAP1 DUP4 PUSH20 0xFFFFFFFFFFFFFFFFFFFFFFFFFFFFFFFFFFFFFFFF AND MUL OR SWAP1 SSTORE POP POP POP PUSH1 0x1 PUSH1 0x4 PUSH1 0x0 CALLER PUSH20 0xFFFFFFFFFFFFFFFFFFFFFFFFFFFFFFFFFFFFFFFF AND PUSH20 0xFFFFFFFFFFFFFFFFFFFFFFFFFFFFFFFFFFFFFFFF AND DUP2 MSTORE PUSH1 0x20 ADD SWAP1 DUP2 MSTORE PUSH1 0x20 ADD PUSH1 0x0 KECCAK256 PUSH1 0x0 PUSH2 0x100 EXP DUP2 SLOAD DUP2 PUSH1 0xFF MUL NOT AND SWAP1 DUP4 ISZERO ISZERO MUL OR SWAP1 SSTORE POP PUSH1 0x2 PUSH1 0x0 DUP2 SLOAD DUP1 SWAP3 SWAP2 SWAP1 PUSH2 0x774 SWAP1 PUSH2 0x10B9 JUMP JUMPDEST SWAP2 SWAP1 POP SSTORE POP POP POP POP POP JUMP JUMPDEST PUSH1 0x3 DUP2 DUP2 SLOAD DUP2 LT PUSH2 0x78F JUMPI PUSH1 0x0 DUP1 REVERT JUMPDEST SWAP1 PUSH1 0x0 MSTORE PUSH1 0x20 PUSH1 0x0 KECCAK256 SWAP1 PUSH1 0x3 MUL ADD PUSH1 0x0 SWAP2 POP SWAP1 POP DUP1 PUSH1 0x0 ADD DUP1 SLOAD PUSH2 0x7B2 SWAP1 PUSH2 0x10E3 JUMP JUMPDEST DUP1 PUSH1 0x1F ADD PUSH1 0x20 DUP1 SWAP2 DIV MUL PUSH1 0x20 ADD PUSH1 0x40 MLOAD SWAP1 DUP2 ADD PUSH1 0x40 MSTORE DUP1 SWAP3 SWAP2 SWAP1 DUP2 DUP2 MSTORE PUSH1 0x20 ADD DUP3 DUP1 SLOAD PUSH2 0x7DE SWAP1 PUSH2 0x10E3 JUMP JUMPDEST DUP1 ISZERO PUSH2 0x82B JUMPI DUP1 PUSH1 0x1F LT PUSH2 0x800 JUMPI PUSH2 0x100 DUP1 DUP4 SLOAD DIV MUL DUP4 MSTORE SWAP2 PUSH1 0x20 ADD SWAP2 PUSH2 0x82B JUMP JUMPDEST DUP3 ADD SWAP2 SWAP1 PUSH1 0x0 MSTORE PUSH1 0x20 PUSH1 0x0 KECCAK256 SWAP1 JUMPDEST DUP2 SLOAD DUP2 MSTORE SWAP1 PUSH1 0x1 ADD SWAP1 PUSH1 0x20 ADD DUP1 DUP4 GT PUSH2 0x80E JUMPI DUP3 SWAP1 SUB PUSH1 0x1F AND DUP3 ADD SWAP2 JUMPDEST POP POP POP POP POP SWAP1 DUP1 PUSH1 0x1 ADD DUP1 SLOAD PUSH2 0x840 SWAP1 PUSH2 0x10E3 JUMP JUMPDEST DUP1 PUSH1 0x1F ADD PUSH1 0x20 DUP1 SWAP2 DIV MUL PUSH1 0x20 ADD PUSH1 0x40 MLOAD SWAP1 DUP2 ADD PUSH1 0x40 MSTORE DUP1 SWAP3 SWAP2 SWAP1 DUP2 DUP2 MSTORE PUSH1 0x20 ADD DUP3 DUP1 SLOAD PUSH2 0x86C SWAP1 PUSH2 0x10E3 JUMP JUMPDEST DUP1 ISZERO PUSH2 0x8B9 JUMPI DUP1 PUSH1 0x1F LT PUSH2 0x88E JUMPI PUSH2 0x100 DUP1 DUP4 SLOAD DIV MUL DUP4 MSTORE SWAP2 PUSH1 0x20 ADD SWAP2 PUSH2 0x8B9 JUMP JUMPDEST DUP3 ADD SWAP2 SWAP1 PUSH1 0x0 MSTORE PUSH1 0x20 PUSH1 0x0 KECCAK256 SWAP1 JUMPDEST DUP2 SLOAD DUP2 MSTORE SWAP1 PUSH1 0x1 ADD SWAP1 PUSH1 0x20 ADD DUP1 DUP4 GT PUSH2 0x89C JUMPI DUP3 SWAP1 SUB PUSH1 0x1F AND DUP3 ADD SWAP2 JUMPDEST POP POP POP POP POP SWAP1 DUP1 PUSH1 0x2 ADD PUSH1 0x0 SWAP1 SLOAD SWAP1 PUSH2 0x100 EXP SWAP1 DIV PUSH20 0xFFFFFFFFFFFFFFFFFFFFFFFFFFFFFFFFFFFFFFFF AND SWAP1 POP DUP4 JUMP JUMPDEST PUSH2 0xC350 DUP2 JUMP JUMPDEST DUP3 DUP1 SLOAD PUSH2 0x8FB SWAP1 PUSH2 0x10E3 JUMP JUMPDEST SWAP1 PUSH1 0x0 MSTORE PUSH1 0x20 PUSH1 0x0 KECCAK256 SWAP1 PUSH1 0x1F ADD PUSH1 0x20 SWAP1 DIV DUP2 ADD SWAP3 DUP3 PUSH2 0x91D JUMPI PUSH1 0x0 DUP6 SSTORE PUSH2 0x964 JUMP JUMPDEST DUP3 PUSH1 0x1F LT PUSH2 0x936 JUMPI DUP1 MLOAD PUSH1 0xFF NOT AND DUP4 DUP1 ADD OR DUP6 SSTORE PUSH2 0x964 JUMP JUMPDEST DUP3 DUP1 ADD PUSH1 0x1 ADD DUP6 SSTORE DUP3 ISZERO PUSH2 0x964 JUMPI SWAP2 DUP3 ADD JUMPDEST DUP3 DUP2 GT ISZERO PUSH2 0x963 JUMPI DUP3 MLOAD DUP3 SSTORE SWAP2 PUSH1 0x20 ADD SWAP2 SWAP1 PUSH1 0x1 ADD SWAP1 PUSH2 0x948 JUMP JUMPDEST JUMPDEST POP SWAP1 POP PUSH2 0x971 SWAP2 SWAP1 PUSH2 0x975 JUMP JUMPDEST POP SWAP1 JUMP JUMPDEST JUMPDEST DUP1 DUP3 GT ISZERO PUSH2 0x98E JUMPI PUSH1 0x0 DUP2 PUSH1 0x0 SWAP1 SSTORE POP PUSH1 0x1 ADD PUSH2 0x976 JUMP JUMPDEST POP SWAP1 JUMP JUMPDEST PUSH1 0x0 PUSH2 0x9A5 PUSH2 0x9A0 DUP5 PUSH2 0xF99 JUMP JUMPDEST PUSH2 0xF68 JUMP JUMPDEST SWAP1 POP DUP3 DUP2 MSTORE PUSH1 0x20 DUP2 ADD DUP5 DUP5 DUP5 ADD GT ISZERO PUSH2 0x9BD JUMPI PUSH1 0x0 DUP1 REVERT JUMPDEST PUSH2 0x9C8 DUP5 DUP3 DUP6 PUSH2 0x1077 JUMP JUMPDEST POP SWAP4 SWAP3 POP POP POP JUMP JUMPDEST PUSH1 0x0 DUP2 CALLDATALOAD SWAP1 POP PUSH2 0x9DF DUP2 PUSH2 0x11B3 JUMP JUMPDEST SWAP3 SWAP2 POP POP JUMP JUMPDEST PUSH1 0x0 DUP3 PUSH1 0x1F DUP4 ADD SLT PUSH2 0x9F6 JUMPI PUSH1 0x0 DUP1 REVERT JUMPDEST DUP2 CALLDATALOAD PUSH2 0xA06 DUP5 DUP3 PUSH1 0x20 DUP7 ADD PUSH2 0x992 JUMP JUMPDEST SWAP2 POP POP SWAP3 SWAP2 POP POP JUMP JUMPDEST PUSH1 0x0 DUP2 CALLDATALOAD SWAP1 POP PUSH2 0xA1E DUP2 PUSH2 0x11CA JUMP JUMPDEST SWAP3 SWAP2 POP POP JUMP JUMPDEST PUSH1 0x0 PUSH1 0x20 DUP3 DUP5 SUB SLT ISZERO PUSH2 0xA36 JUMPI PUSH1 0x0 DUP1 REVERT JUMPDEST PUSH1 0x0 PUSH2 0xA44 DUP5 DUP3 DUP6 ADD PUSH2 0x9D0 JUMP JUMPDEST SWAP2 POP POP SWAP3 SWAP2 POP POP JUMP JUMPDEST PUSH1 0x0 DUP1 PUSH1 0x40 DUP4 DUP6 SUB SLT ISZERO PUSH2 0xA60 JUMPI PUSH1 0x0 DUP1 REVERT JUMPDEST PUSH1 0x0 DUP4 ADD CALLDATALOAD PUSH8 0xFFFFFFFFFFFFFFFF DUP2 GT ISZERO PUSH2 0xA7A JUMPI PUSH1 0x0 DUP1 REVERT JUMPDEST PUSH2 0xA86 DUP6 DUP3 DUP7 ADD PUSH2 0x9E5 JUMP JUMPDEST SWAP3 POP POP PUSH1 0x20 DUP4 ADD CALLDATALOAD PUSH8 0xFFFFFFFFFFFFFFFF DUP2 GT ISZERO PUSH2 0xAA3 JUMPI PUSH1 0x0 DUP1 REVERT JUMPDEST PUSH2 0xAAF DUP6 DUP3 DUP7 ADD PUSH2 0x9E5 JUMP JUMPDEST SWAP2 POP POP SWAP3 POP SWAP3 SWAP1 POP JUMP JUMPDEST PUSH1 0x0 PUSH1 0x20 DUP3 DUP5 SUB SLT ISZERO PUSH2 0xACB JUMPI PUSH1 0x0 DUP1 REVERT JUMPDEST PUSH1 0x0 PUSH2 0xAD9 DUP5 DUP3 DUP6 ADD PUSH2 0xA0F JUMP JUMPDEST SWAP2 POP POP SWAP3 SWAP2 POP POP JUMP JUMPDEST PUSH1 0x0 PUSH2 0xAEE DUP4 DUP4 PUSH2 0xD8A JUMP JUMPDEST SWAP1 POP SWAP3 SWAP2 POP POP JUMP JUMPDEST PUSH2 0xAFF DUP2 PUSH2 0x102F JUMP JUMPDEST DUP3 MSTORE POP POP JUMP JUMPDEST PUSH2 0xB0E DUP2 PUSH2 0x102F JUMP JUMPDEST DUP3 MSTORE POP POP JUMP JUMPDEST PUSH1 0x0 PUSH2 0xB1F DUP3 PUSH2 0xFD9 JUMP JUMPDEST PUSH2 0xB29 DUP2 DUP6 PUSH2 0xFFC JUMP JUMPDEST SWAP4 POP DUP4 PUSH1 0x20 DUP3 MUL DUP6 ADD PUSH2 0xB3B DUP6 PUSH2 0xFC9 JUMP JUMPDEST DUP1 PUSH1 0x0 JUMPDEST DUP6 DUP2 LT ISZERO PUSH2 0xB77 JUMPI DUP5 DUP5 SUB DUP10 MSTORE DUP2 MLOAD PUSH2 0xB58 DUP6 DUP3 PUSH2 0xAE2 JUMP JUMPDEST SWAP5 POP PUSH2 0xB63 DUP4 PUSH2 0xFEF JUMP JUMPDEST SWAP3 POP PUSH1 0x20 DUP11 ADD SWAP10 POP POP PUSH1 0x1 DUP2 ADD SWAP1 POP PUSH2 0xB3F JUMP JUMPDEST POP DUP3 SWAP8 POP DUP8 SWAP6 POP POP POP POP POP POP SWAP3 SWAP2 POP POP JUMP JUMPDEST PUSH2 0xB92 DUP2 PUSH2 0x1041 JUMP JUMPDEST DUP3 MSTORE POP POP JUMP JUMPDEST PUSH1 0x0 PUSH2 0xBA3 DUP3 PUSH2 0xFE4 JUMP JUMPDEST PUSH2 0xBAD DUP2 DUP6 PUSH2 0x100D JUMP JUMPDEST SWAP4 POP PUSH2 0xBBD DUP2 DUP6 PUSH1 0x20 DUP7 ADD PUSH2 0x1086 JUMP JUMPDEST PUSH2 0xBC6 DUP2 PUSH2 0x11A2 JUMP JUMPDEST DUP5 ADD SWAP2 POP POP SWAP3 SWAP2 POP POP JUMP JUMPDEST PUSH1 0x0 PUSH2 0xBDC DUP3 PUSH2 0xFE4 JUMP JUMPDEST PUSH2 0xBE6 DUP2 DUP6 PUSH2 0x101E JUMP JUMPDEST SWAP4 POP PUSH2 0xBF6 DUP2 DUP6 PUSH1 0x20 DUP7 ADD PUSH2 0x1086 JUMP JUMPDEST PUSH2 0xBFF DUP2 PUSH2 0x11A2 JUMP JUMPDEST DUP5 ADD SWAP2 POP POP SWAP3 SWAP2 POP POP JUMP JUMPDEST PUSH1 0x0 PUSH2 0xC17 PUSH1 0x1A DUP4 PUSH2 0x101E JUMP JUMPDEST SWAP2 POP PUSH32 0x4769744875622055524C2063616E6E6F7420626520656D707479000000000000 PUSH1 0x0 DUP4 ADD MSTORE PUSH1 0x20 DUP3 ADD SWAP1 POP SWAP2 SWAP1 POP JUMP JUMPDEST PUSH1 0x0 PUSH2 0xC57 PUSH1 0x11 DUP4 PUSH2 0x101E JUMP JUMPDEST SWAP2 POP PUSH32 0x416C7265616479207375626D6974746564000000000000000000000000000000 PUSH1 0x0 DUP4 ADD MSTORE PUSH1 0x20 DUP3 ADD SWAP1 POP SWAP2 SWAP1 POP JUMP JUMPDEST PUSH1 0x0 PUSH2 0xC97 PUSH1 0xF DUP4 PUSH2 0x101E JUMP JUMPDEST SWAP2 POP PUSH32 0x446561646C696E65207061737365640000000000000000000000000000000000 PUSH1 0x0 DUP4 ADD MSTORE PUSH1 0x20 DUP3 ADD SWAP1 POP SWAP2 SWAP1 POP JUMP JUMPDEST PUSH1 0x0 PUSH2 0xCD7 PUSH1 0x13 DUP4 PUSH2 0x101E JUMP JUMPDEST SWAP2 POP PUSH32 0x4E6F207375626D697373696F6E73206C65667400000000000000000000000000 PUSH1 0x0 DUP4 ADD MSTORE PUSH1 0x20 DUP3 ADD SWAP1 POP SWAP2 SWAP1 POP JUMP JUMPDEST PUSH1 0x0 PUSH2 0xD17 PUSH1 0x1B DUP4 PUSH2 0x101E JUMP JUMPDEST SWAP2 POP PUSH32 0x54656C656772616D2049442063616E6E6F7420626520656D7074790000000000 PUSH1 0x0 DUP4 ADD MSTORE PUSH1 0x20 DUP3 ADD SWAP1 POP SWAP2 SWAP1 POP JUMP JUMPDEST PUSH1 0x0 PUSH2 0xD57 PUSH1 0x18 DUP4 PUSH2 0x101E JUMP JUMPDEST SWAP2 POP PUSH32 0x4F6E6C79206F776E65722063616E2063616C6C20746869730000000000000000 PUSH1 0x0 DUP4 ADD MSTORE PUSH1 0x20 DUP3 ADD SWAP1 POP SWAP2 SWAP1 POP JUMP JUMPDEST PUSH1 0x0 PUSH1 0x60 DUP4 ADD PUSH1 0x0 DUP4 ADD MLOAD DUP5 DUP3 SUB PUSH1 0x0 DUP7 ADD MSTORE PUSH2 0xDA7 DUP3 DUP3 PUSH2 0xB98 JUMP JUMPDEST SWAP2 POP POP PUSH1 0x20 DUP4 ADD MLOAD DUP5 DUP3 SUB PUSH1 0x20 DUP7 ADD MSTORE PUSH2 0xDC1 DUP3 DUP3 PUSH2 0xB98 JUMP JUMPDEST SWAP2 POP POP PUSH1 0x40 DUP4 ADD MLOAD PUSH2 0xDD6 PUSH1 0x40 DUP7 ADD DUP3 PUSH2 0xAF6 JUMP JUMPDEST POP DUP1 SWAP2 POP POP SWAP3 SWAP2 POP POP JUMP JUMPDEST PUSH2 0xDEA DUP2 PUSH2 0x106D JUMP JUMPDEST DUP3 MSTORE POP POP JUMP JUMPDEST PUSH1 0x0 PUSH1 0x20 DUP3 ADD SWAP1 POP PUSH2 0xE05 PUSH1 0x0 DUP4 ADD DUP5 PUSH2 0xB05 JUMP JUMPDEST SWAP3 SWAP2 POP POP JUMP JUMPDEST PUSH1 0x0 PUSH1 0x20 DUP3 ADD SWAP1 POP DUP2 DUP2 SUB PUSH1 0x0 DUP4 ADD MSTORE PUSH2 0xE25 DUP2 DUP5 PUSH2 0xB14 JUMP JUMPDEST SWAP1 POP SWAP3 SWAP2 POP POP JUMP JUMPDEST PUSH1 0x0 PUSH1 0x20 DUP3 ADD SWAP1 POP PUSH2 0xE42 PUSH1 0x0 DUP4 ADD DUP5 PUSH2 0xB89 JUMP JUMPDEST SWAP3 SWAP2 POP POP JUMP JUMPDEST PUSH1 0x0 PUSH1 0x60 DUP3 ADD SWAP1 POP DUP2 DUP2 SUB PUSH1 0x0 DUP4 ADD MSTORE PUSH2 0xE62 DUP2 DUP7 PUSH2 0xBD1 JUMP JUMPDEST SWAP1 POP DUP2 DUP2 SUB PUSH1 0x20 DUP4 ADD MSTORE PUSH2 0xE76 DUP2 DUP6 PUSH2 0xBD1 JUMP JUMPDEST SWAP1 POP PUSH2 0xE85 PUSH1 0x40 DUP4 ADD DUP5 PUSH2 0xB05 JUMP JUMPDEST SWAP5 SWAP4 POP POP POP POP JUMP JUMPDEST PUSH1 0x0 PUSH1 0x20 DUP3 ADD SWAP1 POP DUP2 DUP2 SUB PUSH1 0x0 DUP4 ADD MSTORE PUSH2 0xEA6 DUP2 PUSH2 0xC0A JUMP JUMPDEST SWAP1 POP SWAP2 SWAP1 POP JUMP JUMPDEST PUSH1 0x0 PUSH1 0x20 DUP3 ADD SWAP1 POP DUP2 DUP2 SUB PUSH1 0x0 DUP4 ADD MSTORE PUSH2 0xEC6 DUP2 PUSH2 0xC4A JUMP JUMPDEST SWAP1 POP SWAP2 SWAP1 POP JUMP JUMPDEST PUSH1 0x0 PUSH1 0x20 DUP3 ADD SWAP1 POP DUP2 DUP2 SUB PUSH1 0x0 DUP4 ADD MSTORE PUSH2 0xEE6 DUP2 PUSH2 0xC8A JUMP JUMPDEST SWAP1 POP SWAP2 SWAP1 POP JUMP JUMPDEST PUSH1 0x0 PUSH1 0x20 DUP3 ADD SWAP1 POP DUP2 DUP2 SUB PUSH1 0x0 DUP4 ADD MSTORE PUSH2 0xF06 DUP2 PUSH2 0xCCA JUMP JUMPDEST SWAP1 POP SWAP2 SWAP1 POP JUMP JUMPDEST PUSH1 0x0 PUSH1 0x20 DUP3 ADD SWAP1 POP DUP2 DUP2 SUB PUSH1 0x0 DUP4 ADD MSTORE PUSH2 0xF26 DUP2 PUSH2 0xD0A JUMP JUMPDEST SWAP1 POP SWAP2 SWAP1 POP JUMP JUMPDEST PUSH1 0x0 PUSH1 0x20 DUP3 ADD SWAP1 POP DUP2 DUP2 SUB PUSH1 0x0 DUP4 ADD MSTORE PUSH2 0xF46 DUP2 PUSH2 0xD4A JUMP JUMPDEST SWAP1 POP SWAP2 SWAP1 POP JUMP JUMPDEST PUSH1 0x0 PUSH1 0x20 DUP3 ADD SWAP1 POP PUSH2 0xF62 PUSH1 0x0 DUP4 ADD DUP5 PUSH2 0xDE1 JUMP JUMPDEST SWAP3 SWAP2 POP POP JUMP JUMPDEST PUSH1 0x0 PUSH1 0x40 MLOAD SWAP1 POP DUP2 DUP2 ADD DUP2 DUP2 LT PUSH8 0xFFFFFFFFFFFFFFFF DUP3 GT OR ISZERO PUSH2 0xF8F JUMPI PUSH2 0xF8E PUSH2 0x1173 JUMP JUMPDEST JUMPDEST DUP1 PUSH1 0x40 MSTORE POP SWAP2 SWAP1 POP JUMP JUMPDEST PUSH1 0x0 PUSH8 0xFFFFFFFFFFFFFFFF DUP3 GT ISZERO PUSH2 0xFB4 JUMPI PUSH2 0xFB3 PUSH2 0x1173 JUMP JUMPDEST JUMPDEST PUSH1 0x1F NOT PUSH1 0x1F DUP4 ADD AND SWAP1 POP PUSH1 0x20 DUP2 ADD SWAP1 POP SWAP2 SWAP1 POP JUMP JUMPDEST PUSH1 0x0 DUP2 SWAP1 POP PUSH1 0x20 DUP3 ADD SWAP1 POP SWAP2 SWAP1 POP JUMP JUMPDEST PUSH1 0x0 DUP2 MLOAD SWAP1 POP SWAP2 SWAP1 POP JUMP JUMPDEST PUSH1 0x0 DUP2 MLOAD SWAP1 POP SWAP2 SWAP1 POP JUMP JUMPDEST PUSH1 0x0 PUSH1 0x20 DUP3 ADD SWAP1 POP SWAP2 SWAP1 POP JUMP JUMPDEST PUSH1 0x0 DUP3 DUP3 MSTORE PUSH1 0x20 DUP3 ADD SWAP1 POP SWAP3 SWAP2 POP POP JUMP JUMPDEST PUSH1 0x0 DUP3 DUP3 MSTORE PUSH1 0x20 DUP3 ADD SWAP1 POP SWAP3 SWAP2 POP POP JUMP JUMPDEST PUSH1 0x0 DUP3 DUP3 MSTORE PUSH1 0x20 DUP3 ADD SWAP1 POP SWAP3 SWAP2 POP POP JUMP JUMPDEST PUSH1 0x0 PUSH2 0x103A DUP3 PUSH2 0x104D JUMP JUMPDEST SWAP1 POP SWAP2 SWAP1 POP JUMP JUMPDEST PUSH1 0x0 DUP2 ISZERO ISZERO SWAP1 POP SWAP2 SWAP1 POP JUMP JUMPDEST PUSH1 0x0 PUSH20 0xFFFFFFFFFFFFFFFFFFFFFFFFFFFFFFFFFFFFFFFF DUP3 AND SWAP1 POP SWAP2 SWAP1 POP JUMP JUMPDEST PUSH1 0x0 DUP2 SWAP1 POP SWAP2 SWAP1 POP JUMP JUMPDEST DUP3 DUP2 DUP4 CALLDATACOPY PUSH1 0x0 DUP4 DUP4 ADD MSTORE POP POP POP JUMP JUMPDEST PUSH1 0x0 JUMPDEST DUP4 DUP2 LT ISZERO PUSH2 0x10A4 JUMPI DUP1 DUP3 ADD MLOAD DUP2 DUP5 ADD MSTORE PUSH1 0x20 DUP2 ADD SWAP1 POP PUSH2 0x1089 JUMP JUMPDEST DUP4 DUP2 GT ISZERO PUSH2 0x10B3 JUMPI PUSH1 0x0 DUP5 DUP5 ADD MSTORE JUMPDEST POP POP POP POP JUMP JUMPDEST PUSH1 0x0 PUSH2 0x10C4 DUP3 PUSH2 0x106D JUMP JUMPDEST SWAP2 POP PUSH1 0x0 DUP3 EQ ISZERO PUSH2 0x10D8 JUMPI PUSH2 0x10D7 PUSH2 0x1115 JUMP JUMPDEST JUMPDEST PUSH1 0x1 DUP3 SUB SWAP1 POP SWAP2 SWAP1 POP JUMP JUMPDEST PUSH1 0x0 PUSH1 0x2 DUP3 DIV SWAP1 POP PUSH1 0x1 DUP3 AND DUP1 PUSH2 0x10FB JUMPI PUSH1 0x7F DUP3 AND SWAP2 POP JUMPDEST PUSH1 0x20 DUP3 LT DUP2 EQ ISZERO PUSH2 0x110F JUMPI PUSH2 0x110E PUSH2 0x1144 JUMP JUMPDEST JUMPDEST POP SWAP2 SWAP1 POP JUMP JUMPDEST PUSH32 0x4E487B7100000000000000000000000000000000000000000000000000000000 PUSH1 0x0 MSTORE PUSH1 0x11 PUSH1 0x4 MSTORE PUSH1 0x24 PUSH1 0x0 REVERT JUMPDEST PUSH32 0x4E487B7100000000000000000000000000000000000000000000000000000000 PUSH1 0x0 MSTORE PUSH1 0x22 PUSH1 0x4 MSTORE PUSH1 0x24 PUSH1 0x0 REVERT JUMPDEST PUSH32 0x4E487B7100000000000000000000000000000000000000000000000000000000 PUSH1 0x0 MSTORE PUSH1 0x41 PUSH1 0x4 MSTORE PUSH1 0x24 PUSH1 0x0 REVERT JUMPDEST PUSH1 0x0 PUSH1 0x1F NOT PUSH1 0x1F DUP4 ADD AND SWAP1 POP SWAP2 SWAP1 POP JUMP JUMPDEST PUSH2 0x11BC DUP2 PUSH2 0x102F JUMP JUMPDEST DUP2 EQ PUSH2 0x11C7 JUMPI PUSH1 0x0 DUP1 REVERT JUMPDEST POP JUMP JUMPDEST PUSH2 0x11D3 DUP2 PUSH2 0x106D JUMP JUMPDEST DUP2 EQ PUSH2 0x11DE JUMPI PUSH1 0x0 DUP1 REVERT JUMPDEST POP JUMP INVALID LOG2 PUSH5 0x6970667358 0x22 SLT KECCAK256 0xB5 BYTE DUP11 0x23 0x4B PUSH15 0xBE2E4AA8B564FCAD296B785A0B1767 ORIGIN DUP3 GASLIMIT MSTORE8 SWAP1 DUP8 PUSH31 0xDCE94E8264736F6C6343000800003300000000000000000000000000000000 "
				},
				"gasEstimates": {
					"creation": {
						"codeDepositCost": "926200",
						"executionCost": "infinite",
						"totalCost": "infinite"
					},
					"external": {
						"BOUNTY_AMOUNT()": "417",
						"deadline()": "1152",
						"getAllSubmissions()": "infinite",
						"hasSubmitted(address)": "1590",
						"owner()": "1233",
						"setDeadline(uint256)": "21288",
						"submissions(uint256)": "infinite",
						"submissionsLeft()": "1129",
						"submitBounty(string,string)": "infinite"
					}
				},
				"methodIdentifiers": {
					"BOUNTY_AMOUNT()": "e9e48880",
					"deadline()": "29dcb0cf",
					"getAllSubmissions()": "62bd983a",
					"hasSubmitted(address)": "388044b3",
					"owner()": "8da5cb5b",
					"setDeadline(uint256)": "195199f6",
					"submissions(uint256)": "ad73349e",
					"submissionsLeft()": "848a991a",
					"submitBounty(string,string)": "8de0acc3"
				}
			},
			"storageLayout": {
				"storage": [
					{
						"astId": 3,
						"contract": "contracts/BountySubmission.sol:BountySubmission",
						"label": "owner",
						"offset": 0,
						"slot": "0",
						"type": "t_address"
					},
					{
						"astId": 8,
						"contract": "contracts/BountySubmission.sol:BountySubmission",
						"label": "deadline",
						"offset": 0,
						"slot": "1",
						"type": "t_uint256"
					},
					{
						"astId": 11,
						"contract": "contracts/BountySubmission.sol:BountySubmission",
						"label": "submissionsLeft",
						"offset": 0,
						"slot": "2",
						"type": "t_uint256"
					},
					{
						"astId": 22,
						"contract": "contracts/BountySubmission.sol:BountySubmission",
						"label": "submissions",
						"offset": 0,
						"slot": "3",
						"type": "t_array(t_struct(Submission)18_storage)dyn_storage"
					},
					{
						"astId": 26,
						"contract": "contracts/BountySubmission.sol:BountySubmission",
						"label": "hasSubmitted",
						"offset": 0,
						"slot": "4",
						"type": "t_mapping(t_address,t_bool)"
					}
				],
				"types": {
					"t_address": {
						"encoding": "inplace",
						"label": "address",
						"numberOfBytes": "20"
					},
					"t_array(t_struct(Submission)18_storage)dyn_storage": {
						"base": "t_struct(Submission)18_storage",
						"encoding": "dynamic_array",
						"label": "struct BountySubmission.Submission[]",
						"numberOfBytes": "32"
					},
					"t_bool": {
						"encoding": "inplace",
						"label": "bool",
						"numberOfBytes": "1"
					},
					"t_mapping(t_address,t_bool)": {
						"encoding": "mapping",
						"key": "t_address",
						"label": "mapping(address => bool)",
						"numberOfBytes": "32",
						"value": "t_bool"
					},
					"t_string_storage": {
						"encoding": "bytes",
						"label": "string",
						"numberOfBytes": "32"
					},
					"t_struct(Submission)18_storage": {
						"encoding": "inplace",
						"label": "struct BountySubmission.Submission",
						"members": [
							{
								"astId": 13,
								"contract": "contracts/BountySubmission.sol:BountySubmission",
								"label": "githubUrl",
								"offset": 0,
								"slot": "0",
								"type": "t_string_storage"
							},
							{
								"astId": 15,
								"contract": "contracts/BountySubmission.sol:BountySubmission",
								"label": "telegramId",
								"offset": 0,
								"slot": "1",
								"type": "t_string_storage"
							},
							{
								"astId": 17,
								"contract": "contracts/BountySubmission.sol:BountySubmission",
								"label": "submitter",
								"offset": 0,
								"slot": "2",
								"type": "t_address"
							}
						],
						"numberOfBytes": "96"
					},
					"t_uint256": {
						"encoding": "inplace",
						"label": "uint256",
						"numberOfBytes": "32"
					}
				}
			},
			"userdoc": {
				"kind": "user",
				"methods": {},
				"version": 1
			}
		}
	}
}